:100000000C94A3120C94CB120C94CB120C94CB1224
:100010000C94CB120C94CB120C94CB120C94CB12EC
:100020000C94CB120C94CB120C947A280C94EC28E0
:100030000C94CB120C94CB120C94CB120C94CB12CC
:100040000C94CB120C94CB120C94CB120C94CB12BC
:100050000C94CB120C94CB120C94CB120C940E1C5F
:100060000C94CB120C94CB120C94CB120C94CB129C
:100070000C94CB120C94CB120C94CB120C94CB128C
:100080000C94CB120C94CB120C94CB120C94CB127C
:100090000C94CB120C94CB120C94CB120C94CB126C
:1000A0000C94CB120C94CB120C94CB1255158D15CD
:1000B0009615A6159615BB15AD15CA15AD15DD150A
:1000C000A6159615F615DD15BB155515AD15361685
:1000D000AD153616BB15F615551536163120BB1C59
:1000E0000A21C21C5B1D5E1D601D921D201F0A217E
:1000F000821FF01F35203B20BB20C1203723442323
:1001000050235C238123A023B323C923E2230224A9
:1001100046494748542020444546454E440A204914
:1001200054454D20202052554E00206361737420A9
:10013000666972652061740A796F7520666F722036
:10014000002076656E6F6D6F7573206269740A7931
:100150006F7520666F722000207374617265732062
:10016000646F776E0A796F752E41746B20616E64CF
:100170002044656620646F776E2E00207065636B87
:1001800073746F726D65640A20796F7520666F7283
:10019000200020666F727469666965640A69747309
:1001A000656C662E00207261792061206C69676839
:1001B000740A636173742075706F6E20697473655F
:1001C0006C662E48502B2B00207370697473207757
:1001D000656220260A676C75656420796F752069F1
:1001E0006E20706C6163652E0020706F776572659C
:1001F000642075702E0020737570657220736F6EA9
:1002000069630A73637265656368200020737069AF
:10021000747320736C696D650A666F7220002D2DF2
:100220003E004465663A002D2D3E0041746B3A0055
:100230002D2D3E004D617848503A004C6576656C36
:100240006564207570210020476F6C643A00457822
:10025000703A00456E656D79206465666561746508
:100260006421476F740A002F0048503A00526576A7
:100270006976656421204C696665207363726F6CD2
:100280006C0A7573656421002F0048503A0020699C
:100290006E20706F69736F6E2064616D6167652E8B
:1002A00000596F752073756666657265640A00593A
:1002B0006F7520756E77726170706564206F666609
:1002C0000A7468652077656262696E672E00596FEF
:1002D00075277265207772617070656420696E0A97
:1002E0007765622E002F0048503A0020696E206426
:1002F000616D6167652E002061747461636B656474
:1003000020796F750A666F722000546865206D6FE2
:100310006E7374657220706F6E646572730A20610B
:100320006E6420776F6E6465727320617761792ED9
:10033000000A4E6F772074686177656420616E648F
:100340002072656164792E0054686520656E656D64
:10035000792069732066726F7A656E2E00456E484B
:10036000503A004F76657263616D6520706F6973F6
:100370006F6E2E000A706F69736F6E2064616D611D
:1003800067652E0054686520656E656D7920676F1E
:100390007420002064616D6167652E000A666F72CB
:1003A00020000A627574206D69737365642E2000E5
:1003B000596F752061747461636B2000426C6F63C8
:1003C0006B65642100457363617065642100596F3A
:1003D0007520646566656E6420796F757273656CEF
:1003E0006600207761732072656164790A626566D0
:1003F0006F726520796F7520776572652E000A61CE
:100400007070726F61636865732E000000000000F9
:1004100000008080E0F8FC7E7EF34D2D0931092E2E
:100420004E3EF8E0B05838FC7C3F071311B0F0C9DD
:1004300047A46365D3AFBDAFD36CC3000307060603
:100440000F12322A2925676E5E4E4D6D7E7E3F3D2E
:100450003E1F030000C060E0F0F0F0F0F0B0D0F01C
:10046000780F294E0C1C4C2C92FFF0F00FF5AB5F6F
:10047000FFF7AA57AED7AEFFEDBEF9D6F6B8F450E7
:10048000F8FA1F1F0738FFC701FCFF8F01000000AB
:100490008FFAFD02010100FFFFC38000E050906869
:1004A00018140C0A9E621D5961191DE21C000000FF
:1004B0000000000C1B14171414364A22A143050532
:1004C00005A251F21E3A243810E0000000008040DE
:1004D00080404C3286791109117987334C4888481D
:1004E000840300000C1A1E0C00C0F0389C8E560EBF
:1004F000164E9EAC1C3870E090281000C0E071B819
:100500001E8710B938787C7C7C7C7C78391005AFEC
:100510007FC000030306070E1D1A3C3A7478756805
:100520007578341A1D0E0D06070303A044E8B31CAA
:10053000B876F8F0CCA0104080D8E0F876B81CB3BC
:10054000E844A000252F1EB56855E2D7BFFF568AA4
:10055000FFBFD7E2506AB51E2F250010183834743B
:10056000747D6A693BBBFF7E337B696A7974743C36
:1005700038100000000000008080407886F9F9F90A
:1005800086784080800000000000000030C84641AE
:1005900040F000300001FF01003000EE312531DE77
:1005A000300000000000314F615080E08780FF8004
:1005B00087E08040FFA1FF00000000C0F0984814D1
:1005C0000402020201010101010102028204042865
:1005D00098F0C00F3D746A69D4D0EAB0A9D0D4A015
:1005E000AAD0B0AAE8D4D1EA773F0F0000000000FB
:1005F00080700F0062343131346200779414122C11
:10060000282810000004C6E7F31B6D956D9DCD36BC
:10061000CD35CDFDFBFBE6C6B07EFF00E0FDFA76F2
:10062000865EA12BA77FE7EBE11EE6FAFAFDFFFF4E
:1006300007FEF95EBFBF7FBEB16F1617160B2552BE
:1006400059BEBF7FBFBF5F01103B1F068D4FA66025
:1006500012CA74A824A424A627A72B72C6000000DF
:100660000000000E1929263448494AB58C8D4C8D5E
:100670008CB54C7AFD7E7E828284F8000000C0A09A
:10068000B8ACCA33140C040C14F3AAA4BBCC303F8E
:100690000F0300EE11131133CE80BCC68BDBE3E7F2
:1006A000E3DB8BCEBC80808080000001060C0E0C4A
:1006B0000A0CF8C0A080808B8080A0C0F80E0911C1
:1006C00009110E000000000080C0A3BC9298B0F891
:1006D000B89094BAA7C0C00000000000000000005D
:1006E0000038DCBEA6A291A2A6BEDCB800000000C5
:1006F00000000000C0300804021924BABA9E801E0F
:100700003A3A263801020C304080001F244852B289
:10071000B28D81FCC4F880F9C5C5F981BE5252483A
:1007200048281700000010381ADDF5FFCAB245341A
:10073000C948A054A854AA5428040000E010D0E8E6
:10074000FF1F1F373F3B7DFFFEFDF6EDF6255244B0
:10075000A890A00001024320410140004000004059
:10076000010101437F4634080000000000000080C2
:1007700040A0D0D0F0E0C000000000001C225D7E50
:10078000EFCDEDCFEDCDEF7F7E3C00E018A60DF074
:100790001F263232261FF8059306F8010E15102782
:1007A00018622424623847241906010000000080E2
:1007B0004078447A448000000000000004064D5256
:1007C0002A5484542A524D06040000000000008080
:1007D0008304F0FCD6C6D6FEFEFCF340200C327239
:1007E0003E72320DC30737070303043C42810921DF
:1007F0000284B9F0BB84022109817E012210954E4A
:10080000552A35FF352A554E951022E01028448E82
:1008100071D5514E51D5718E4428F03DE3BE9D8473
:10082000C4292E282E29C4849DA6C1000260987474
:100830004AC7AD5DB30C00040A0400020028542925
:100840006D28D020100F044A1B0A152050DA471BD0
:1008500003255840404020102010E000070A14E80B
:10086000B0A4B4E4B2E0302814090600000010106F
:10087000E0231D021CD0201000000000000884446A
:100880003E2721150B070408080000E010048042F1
:100890002111B1D1A142800410E0001F0CF02325EA
:1008A0004AD75BD74AA523F01C3F00F8FCFEE6C3FD
:1008B00053474F4F4753C3F6FEFCF840A1D397CEA2
:1008C0008F7C0F0F7C8FCE97D3A1400000C0247C7B
:1008D000486C5A725A6C487C24C0000000314A4A65
:1008E0004C351D1D1D354C4A4A310045483A002FF4
:1008F0000048503A000A02070104050F02090106E8
:1009000007140306020C0A1E0408000A0A28031230
:10091000000F0F3203120F1E192D050F0A14283273
:1009200003140C202046091E0A283250081E141EEB
:1009300028780A1E1E4264960C2322584630030E65
:100940000723323C020F072D28780314103C46A0E1
:1009500004190A646496041E09967D78090F1E9690
:1009600096C8052D23C8C8FA094619E1E1FF0950C8
:1009700032FAFA8C054C326464A006463CFA32FF27
:100980000F6441FFFF4461726B426C6F624772619A
:1009900079204261745768697465526174446F6F5D
:1009A0006D384C6567416E677279466C79546F7229
:1009B000746F697365576565644C696F6E436869E8
:1009C000636B656E3F57686974654C697A49706FEF
:1009D0006442616C6C4D757070657420204E6F744C
:1009E000476F6D6261536E616B657920204772615C
:1009F00079576F6C66536B656C65746F6E4269678F
:100A0000536C696D654D616E45617465724D6167CA
:100A1000696369616E54657272614F616B426164B2
:100A20004472616B6F4461726B4E697465476961B2
:100A30006E744E75744B696E67426C6F624E69746A
:100A4000654D6172650C0D0E0F1011121314151304
:100A50001617D5F08D14A1C881CFD9F1AF2000476A
:100A60006F6C643A00020008000A0014001E00289F
:100A7000003C00500064008200AA00F00018014A07
:100A8000017C01AE01D601FE0130028002BC020CE5
:100A90000352038E03B603E8034C04B0041405DCD0
:100AA0000508073408C409800CAC0D3C0FCC102499
:100AB0001318157017C819841CB01D401F34212845
:100AC0002380251027F82AE02EC832B036983A80C5
:100AD0003E68425046204EF055C05D9065606D30D6
:100AE00075007DD0848890409CF8A7B0B320CBC01F
:100AF000DA60EA48EE30F218F60CF800FAE8FDE8A1
:100B0000FDE8FDE8FDE8FDE8FDE8FDE8FDE8FDE8BD
:100B1000FD2F004578703A0041726D6F723A0057B0
:100B20006561706F6E3A002041433A004465666526
:100B30006E73653A00202D20002057503A00417412
:100B40007461636B3A002F0048503A00204465708E
:100B500074683A004C6576656C3A0053746174753C
:100B60007300436865636B204261670A20537461B8
:100B700074757300F02844448282828282010505E4
:100B80000505050D051D0D3D1D7939BABA9AB292BC
:100B9000544428F00718608E0078F0FEFEFDFDFD3D
:100BA0007DBDD9EDA15DA179E1F101000000040E48
:100BB000048078078080C0F1C2848913272F2FDF3B
:100BC0001E1D1A15004840CE412320201010080495
:100BD00002010000000001070180C080002255BB17
:100BE000F7EE66EE66AA77225522000008081C7F01
:100BF0001C08080000000000008041209048A4D29A
:100C0000E0F83E4E2000000042E448102040800002
:100C100000000000000000000304081E1D3E3F3FCE
:100C20002F312E31203020202020201010080403E6
:100C300000000000F8FE070323E7E60080F0FCC791
:100C4000FCF08000FFFE04F804FEFF00FFFF2323FA
:100C500023230300C3E7773677E7C30077F78100E4
:100C600081F77700F7F7303030373700F7F736364F
:100C70003666C6001F3F7060703F1F0000073F7858
:100C80003F0700007F7F6262626260007F7F06062E
:100C90000E7B71000000000080548A578A178A5525
:100CA000CA44C0448A540A458A118A45A8400000B3
:100CB000000000000000A0142A4528552C54885537
:100CC000285520012855A8552C5CAC550C550A54C4
:100CD0002000000080F1FA79DCF58E76D84C7CECAF
:100CE0003A865ED49E1E2E4E2E5E6E16B840D455A9
:100CF000D4D5D4E80D377DFFE79B77D796F9750CEF
:100D0000F368D1A8ABA9D8F4E9E9C1566E7F3F3F9B
:100D10003D170D0700003C424242423C101070104B
:100D200010107000003C42BDA5A5BD422C6888682B
:100D30002868887841220C1211317B2F2F7B3111CA
:100D4000120C2241000C122D2A4A845050844A2A47
:100D50002D120C0000E000001068D4F4D46890005C
:100D600000800000000202000103161616030000B6
:100D700001030100E010E0F0E8942A0A2A9468F0E8
:100D8000C040C0C003050503427C6929697C430358
:100D9000060C0601309234B28692A696309234B296
:100DA0008692A6960C040D0C010409050C040D0C8A
:100DB0000104090570567601FEE642020242E6FE93
:100DC00001765670000707040302020202020203C2
:100DD00004070700DFFFDFFFDFFFDF8ADFFFDFFF42
:100DE000DFFFDF8A070F070F070F0702070F070F45
:100DF000070F0702EFC341DFEF7F1F0FFF7FEFC336
:100E000041DFEFFF0B0000070B0F0E0E0E0F0B0064
:100E100000070B0FFFFFFF7FBF5F2F2F0F1F3F7FCD
:100E2000FFFFFF550F0F0F0C090808080808080CF2
:100E30000F0F0F0DFFF1C18F122C0901092C12CFDA
:100E4000C1F1FF5F0F0F0301080C0C0C0C0C080123
:100E5000030F0F0DFF01DDD9DDD99D699DD9DDD9C6
:100E6000D501FF550F000607060607070706070608
:100E700007000F0DFF21D6DAC0DEC8580048D4C8DD
:100E8000C0DEC6210F000D0C0D0C09040404090C72
:100E90000D0C0D00E1D25E5240DEC8449E40DEC81B
:100EA000C45EC0E10300010101080F0F0E0F09032A
:100EB0000808080BFFF3F3F9F9F8FC9C8CCCC8C9BF
:100EC000C9C1E3770F070F070F070D0008050F07CC
:100ED0000F070F0507F99EFE00BE7EFD7BF7EFDFD3
:100EE000DFBF7FD50E0D0B0809080908090A090A9A
:100EF000090B090C1FEF778FDFDFBF9F0F97CFDF45
:100F0000DFEFEF1F0807030403070B090A0B0703B2
:100F100007030608FF7FBF5F5FBF7F7F7F7F7F7F05
:100F20007F7FFF550F0E0D0A0A0D0D0D090B0909E4
:100F30000B080F0DFF1FAF77F77BFB7BFBFBFB95D0
:100F4000ED1D8BC70F0C0805020103050305030502
:100F50000B0C0F0F1FEF6D8E68668440408466682F
:100F60008EDDCFCF0E0D0E0703000C0E0E0C00030E
:100F7000070F0F0FFF0175F1F501D5C9D5015529EF
:100F8000550101FF0F08090A0B08090A0B08090B94
:100F90000B08080F1EB912B5C397299E399245A3B5
:100FA000972B95AE0706090C0902050307020905F0
:100FB0000205030703AB7BF5B5EE6E2E2E6EEE55E4
:100FC000F5FBFB030E0C0D0A0807050404050709D1
:100FD0000B0D0D0EFAFF77FFAFFF77FFFAFF77FFDC
:100FE000AFFF77FF0A0F070F0F0F070F0A0F070F4B
:100FF0000F0F070FFAFF77FF979F3B3F7CFF3BFFE9
:1010000097FF77FF0A0F070F0F0F070F0A0F070F42
:101010000F0F070FFFFFFF1FCFF7AF79AFF7CF1FFE
:10102000FFFFFFFF0F0F0F0E010D0B0B0B0D010E3E
:101030000F0F0F0FFFF7CFAFD7EB8B717A718B6B61
:10104000E76F8FFF0F0F0F0F07090E010D010E093C
:10105000060F0F0F07B176F4F6C6AA6AAAC6F4B651
:10106000F6F107FF0001030306050503030303056B
:101070000302000F07F1F2727270F2F01250B030FA
:10108000B0101107000F000D000F000F0C08020137
:1010900002080C0007F98AFA8AEA9AFA8AEA9A7A26
:1010A0007A7AF907000F080A080F080A080F0005E6
:1010B00000070000F3EDEDF6F6BA5A5A6AAAB2D666
:1010C000DEEDEDF30F0F0F0F0F0B0505050B0F0FE7
:1010D0000F0F0F0F1FAF77FBDDADADDA76AAD6EAA3
:1010E000566ABD030E0C0A08010505050505080A28
:1010F0000C0D0E0FF9F6F6FC02FEAABAEAAAFEEAF9
:10110000FD03FFFF0F0F0F0F0C0B07060607070667
:1011100007040307FFFFFFFFFFE3DD22EAEA225D8A
:1011200063FFFFFF0F0F0F0F0F0F0F0007070505DE
:10113000000F0F0FFF3F4EF274E4FAF9FBFBF7F7D5
:10114000CF3FFFFF0F0E0C0A050205020503050B3A
:101150000C0F0F0FFFFFFFFF0F060280008103033C
:10116000070FFFFF0F0F0F080C080F0801080F08EB
:101170000C080F0F0F030101415151555145114109
:101180000101030F0F0C0B0B0B0B090B090B090AC9
:10119000090A0C0F0A110011A01100110A11001107
:1011A000A01100110A010001000100010A01000163
:1011B0000001000190F8FCFEFFC682020282C6FF19
:1011C000FEFCF890000103070F0504040404050F5A
:1011D00007030100FEFEFFDFFFAFFF77FFAFFFDF7A
:1011E000FFFEFE540303070F070F070F070F070F3C
:1011F000070B0305FEFEFFCFCF979F3BFF97FFCF67
:10120000FFFEFE540303070F070F070F070F070F1B
:10121000070B0305FFFFFFFF7FBF9F1F9FBF7FFFE0
:10122000FFFFFFAA0F0F0F0F0A09090C09090A0F88
:101230000F0F0F0AFFC39509040284020402800203
:10124000048081C30F0F0F0F0F0600050405000473
:101250000D0D0A0FFF00EE00EAACAAC4BAC4EAAC56
:10126000AA00EE000F080B080A0B0A0A0B0B0A0A69
:101270000A080B081F29251F211B211F130D131FEF
:1012800021151B0405000500000E0F000F0E0000C5
:1012900005000500003E223E223A362E223E223A2A
:1012A000362E2200000E0F000F0E00050005000074
:1012B00005000500FFFFCF33FDF5FA5AEAF5FD33CF
:1012C000CFFFFFFF0F0F0F0B0E0A0509050A0E0BCC
:1012D0000F0F0F0F1FAF77FB7BFB7BB76F1F5FDF1E
:1012E000EFF7B74E0C08090A090809080C0E0E0E94
:1012F0000E0D0D0EFFFFFFFF03FDF5D5FDD5FD0122
:10130000FFFFFFAA0F0F0F0F0805050505050104D4
:101310000F0F0F0AFFFFFF7F3F3F3F1F8FC7E3C144
:10132000E0F5FFFF0F0F0C08030303080C0F0F0F6E
:101330000F0F0F0FFFFF3F43B56EEEDEDEEEEEF553
:10134000C33FFFFF0F0F080102010205020503055D
:1013500002080F0FFFFFFFFF3FCF01040004010F42
:101360009B05FBFF0F0F0F0F08000000000000009F
:101370000F080F0F37071B431B4D218DAD812D5BD0
:10138000835B87370E0E0D0D0D0B0B080A0A080D37
:101390000C0D0E0E3E456173790A2048617264009F
:1013A0008000023E02003E08300018342800000091
:1013B00002FEFEFE0202020EFCF000C0E02020222F
:1013C000E4C80820E8E82420E0C2002022FEFE2233
:1013D000200002FEFE626060E4C80810304C82000B
:1013E000201A00803048747F7C78300000000000B4
:1013F000080F0F0F0808080E070100070F090989D9
:1014000009040080FFFF88080F07A05020174F88AD
:10141000A014280FAF884008AF0F08000080611E9D
:101420000080FE03070830C00000FC0300600000DD
:1014300010B070AC7A6C400000040A0400020F0285
:10144000000000000000000028552A0500081031A7
:101450003373707333311008000528008F000102C8
:10146000FC2F01000000007FFC0601C038060000D0
:10147000788778070000385494949C00007C02021E
:101480003A448202047800704A4A7C4000017E049B
:1014900002020202789C929191914E000081423E9C
:1014A0007F4375437F4175CBFFC1DD63FF415FC162
:1014B000FF41D56B7F635D637FF947797F00000053
:1014C00000000000E0FCFFFFFFEF8102000000FFD2
:1014D000FAF8F8F8F0E10004A0008B9CE0000000AE
:1014E00000000000073FFFFFFFFFFCFAF4E8D0C058
:1014F000A08181A1A14141A1D1A1D1390700000062
:101500000000000000000003070F1F7F836F57BB20
:101510007F7F8B7F1F7F8FBF4FB3887000748A746B
:101520000A48503A004469646E27742066697265FF
:101530002E005261696E696E6720676F6C6420636C
:101540006F696E732E0A4F55434821202B3130208E
:10155000676F6C642C202D3130485000506F6973D8
:101560006F6E20676173212121004865616C696E8F
:10157000672054726170202B3548502E00506974DA
:101580002054726170202D313048502E0047617315
:101590002054726170202D3248502E005370696BB8
:1015A000652054726170202D3548502E00547261B0
:1015B000702121210A00676F6C6421004368657304
:1015C00074210A004E6F7420656E6F75676820671E
:1015D0006F6C642E005472616465642061726D6F7B
:1015E000722E004E6F7420656E6F75676820676F8E
:1015F0006C642E0054726164656420776561706F5D
:101600006E2E0020000A200020000A2B413A000024
:10161000001400370064008200C8006801C201EEB7
:10162000020104D007EA0B88134C1D1027D430FFA9
:10163000FF0A2B573A0000000A00280050007D00E6
:10164000C8005401F4018A02E803DC05C409A00FB4
:101650007C15401FE02EFFFF57656C636F6D6520A2
:10166000746F206D790A626C61636B736D69746865
:101670002E5768617420646F0A796F7520776973DB
:101680006820746F206275793F0A474F4C443A00D6
:10169000416C6C207265737465642075702E005AFD
:1016A0007A7A2E2E2000596F7520646F206E6F7429
:1016B00020686176650A20656E6F75676820676FC0
:1016C0006C642E0057656C636F6D6520746F206DC0
:1016D0007920686F74656C210A596F752063616E9B
:1016E000207374617920616E6420726573740A6678
:1016F0006F7220353020676F6C642C2073746179B1
:101700003F0042756E6368206F66206D69636520D7
:10171000746F6F6B0A746865206D65617420617702
:1017200061792E0042757420697427732066756C88
:101730006C2100596F752070757420697420696E72
:1017400020796F75720A206261672E0059756D21CC
:1017500021202B35306870004D656174210A446F7B
:1017600020796F75206561742069743F00596F7529
:1017700072206261672069732066756C6C20616EEF
:10178000640A20746865207363726F6C6C206372E6
:10179000756D626C65732E00596F75206C6561768E
:1017A0006520746865207363726F6C6C00596F7587
:1017B00027766520666F756E642061207363726F93
:1017C0006C6C210A446F20796F752077616E7420EC
:1017D000746F2074616B650A2069743F00596F75DE
:1017E000206C6561766520746865206261670059C8
:1017F0006F7572206261672069732066756C6C205A
:10180000616E640A207468652062616720696D708A
:101810006C6F6465732E00323520676F6C642070C6
:101820006965636500486572622E00427265616495
:101830002E004D6561742E00506F74696F6E2E001E
:10184000596F7527766520666F756E64206120621A
:101850006167210A446F20796F752077616E74206B
:10186000746F206F70656E0A2069743F000000007D
:101870000004B062A002001020022220200D2240AD
:1018800040002000200A24C0200000002002222264
:10189000200200002002340230020B022002060463
:1018A00000020002600222A00000022420000400C6
:1018B000E0072280F00090200000000000080000F7
:1018C00000025160F00400B0E00270002002022427
:1018D0002002220000020D06D002000AB002021C03
:1018E000900204000002022490040220000202255B
:1018F000900300200002222390042000000920D23F
:1019000090002422200A3042B000000000000000B5
:10191000000B42560890020B024A020002222222C9
:1019200042222222022004000240D2220720222248
:101930000020222206202229022010000340222219
:10194000222000002220D6B12220000024222220C2
:1019500020304050E09090C0F000000000000000F7
:10196000000A22422D02200020000090200009429F
:1019700020C2000020020B0020025D6040020660D1
:101980002002000020222200204002004028020203
:10199000207002222400042222B42200100200003F
:1019A0001004061320C20D00E9000B0F99602702F6
:1019B0005CB090040050220222200900092022007D
:1019C00022409061202022009020020D222322A09C
:1019D00003000220022292242B90002000242022C7
:1019E0002200900004822060020000612202220096
:1019F000200E050D220F02000400022422C0B66052
:101A00000020D6612F400000E020242010222080FA
:101A100010400000102209D32002093220020022C7
:101A2000200224222200000002D24C0702040002FD
:101A30000202222202030004026909022200095262
:101A4000220B0902220C00090D02252200C42200EB
:101A5000004222024622220224922D12220000027B
:101A60002297220222922242249222022A982200C3
:101A7000400000022202EF022202000A22040000BB
:101A8000090206A602020B66120406D60202000034
:101A900004020222220252929262022222000220B8
:101AA0000024222229200200202004004020D2020B
:101AB0002220020302590206026B02060400020001
:101AC00002222240224020802020200040702061FD
:101AD00020004060290220B0200200D050222000C7
:101AE0002030222020904050E0909090F0000000A4
:101AF000008240474C2421242542202222B09029F4
:101B000022001010920022200D0C222C0002222212
:101B1000EF0D22240000222000001010000090226F
:101B2000200420222002209220D430925042200013
:101B300010999006660990C66B00000000000066D0
:101B40000F0111010E04011122222000002020C2E9
:101B5000524090200222202B09040030020C222245
:101B60002C000000020000022208270202004004AC
:101B7000000C22029C00020200090402220322201F
:101B8000B2005020040C2020220000222207292E1F
:101B9000F000101100089C016602240666029206FD
:101BA0006600100000049202520C42142C0422021F
:101BB00022001000100C4909240C49024C04221286
:101BC0004C02220224001000100A220252022212A9
:101BD0002202240229024C029C0000000000022F75
:101BE0002202222222020000000200020002002043
:101BF0002002020E020200050002D00400020001D1
:101C0000000209999902299999020001000200062F
:101C10000002000600020206020200202002A002CA
:101C200000020000000222222200022F22000000F7
:101C30000000222000002F2000002220000022208F
:101C400000000200000B0E0D000222220002020220
:101C500000022222000202020002222200000200F0
:101C600000000200000822270002020200022222D5
:101C700000020202000222220000000000596573E7
:101C80000A204E6F005573650A2044726F70004F32
:101C90006E6C79207573656420647572696E670A6D
:101CA000626174746C652E00596F7520706F697372
:101CB0006F6E656420796F75720A656E656D792146
:101CC00000596F752067726561746C7920696E6365
:101CD00072656173650A796F75722061746B20613A
:101CE0006E64206465662100596F7572204850202B
:101CF0006973206D61786564206F75742E0A0059D0
:101D00006F7520667265657A6520796F75722066D9
:101D10006F65210A00466F6527732061726D6F72CF
:101D2000206D656C7465640A2061776179210059C2
:101D30006F75206275726E20796F757220666F659F
:101D4000210A005265636F76657265642031352023
:101D500048502E0A48503A005265636F76657265A6
:101D6000642033302048502E0A48503A00526563B0
:101D70006F76657265642035302048502E0A4850D1
:101D80003A005265636F76657265642031303020A9
:101D900048502E0A48503A000A200020002D2D2DD0
:101DA000202020506F74696F6E4D65617420204251
:101DB00072656164204865726220204669726553CD
:101DC000634163696453634963652053634C696687
:101DD000655363506F77205363546F786953633E44
:101DE00000080B00020202010009040000010202C7
:101DF000000005240010010524010101042402064D
:101E000005240600010705810310004009040100B4
:101E1000020A0000000705020240000007058302D5
:101E20004000000403090412010002EF02014041D6
:101E300023368000010102030141726475696E6FEF
:101E4000204C4C430041726475696E6F204C656F85
:101E50006E6172646F000211080209080100081324
:101E6000100A10010504010405020403070201031E
:101E7000000102030406080A0C0E10121417191EA2
:101E800063426972746864617953756974436F74ED
:101E9000746F6E205368697274576F6F6C2053753E
:101EA00069742020204C65617468657241726D6FA1
:101EB00072576F6F64656E204D61696C2043686175
:101EC000696E204D61696C2020436F7070657220CF
:101ED00041726D6F7249726F6E204D61696C202086
:101EE0002042726F6E7A652041726D6F7253746515
:101EF000656C20506C6174652046756C6C20506C6C
:101F0000617465202053696C7665722041726D6F33
:101F100072476F6C6420506C61746520204472615C
:101F2000676F6E2041726D6F72456D6572616C6492
:101F300041726D6F724469616D6F6E6441726D6F55
:101F4000724F7574206F662053746F636B050406BF
:101F5000090C0D0F12181923282C2E323C63000196
:101F60000204060807090C0B0E101418151C634612
:101F70006973742061204375666620576F6F6465CE
:101F80006E20537469636B4F616B20436C756220E4
:101F900020202042756C6C205768697020202043F7
:101FA0006F707065722053776F7264436861696EF9
:101FB0002057686970202049726F6E204D616365FB
:101FC00020202042726F61642053776F7264205327
:101FD0007465656C20467261696C20476C61646948
:101FE0007573202020202054726964656E7420204F
:101FF0002020204D6F726E696E672053746172539A
:102000007465656C2041786520202053696C766585
:102010007220426C616465466C616D652057686929
:10202000702020457863616C696275722020204FB2
:102030007574206F662053746F636B00000000009E
:102040003E5B4F5B3E3E6B4F6B3E1C3E7C3E1C1826
:102050003C7E3C181C577D571C1C5E7F5E1C001884
:102060003C1800FFE7C3E7FF0018241800FFE7DB78
:10207000E7FF30483A060E2629792926407F0505D4
:1020800007407F05253F5A3CE73C5A7F3E1C1C0811
:10209000081C1C3E7F14227F22145F5F005F5F06D6
:1020A000097F017F006689956A606060606094A224
:1020B000FFA29408047E040810207E201008082A3D
:1020C0001C08081C2A08081E101010100C1E0C1EDC
:1020D0000C30383E3830060E3E0E06000000000080
:1020E00000005F00000007000700147F147F142425
:1020F0002A7F2A12231308646236495620500008AA
:10210000070300001C2241000041221C002A1C7F02
:102110001C2A08083E0808008070300008080808DB
:1021200008000060600020100804023E5149453E4E
:1021300000427F400072494949462141494D3318C8
:1021400014127F1027454545393C4A494931412100
:102150001109073649494936464949291E000014E4
:10216000000000403400000008142241141414142C
:1021700014004122140802015909063E415D594EDE
:102180007C1211127C7F494949363E414141227FF0
:102190004141413E7F494949417F090909013E4189
:1021A0004151737F0808087F00417F410020404172
:1021B0003F017F081422417F404040407F021C02C3
:1021C0007F7F0408107F3E4141413E7F0909090697
:1021D0003E4151215E7F091929462649494932036A
:1021E000017F01033F4040403F1F2040201F3F40F0
:1021F00038403F63140814630304780403615949A9
:102200004D43007F414141020408102000414141FB
:102210007F040201020440404040400003070800E0
:1022200020545478407F2844443838444444283863
:102230004444287F385454541800087E090218A4D6
:10224000A49C787F0804047800447D40002040402E
:102250003D007F1028440000417F40007C0478044A
:10226000787C080404783844444438FC1824241842
:1022700018242418FC7C08040408485454542404EA
:10228000043F44243C4040207C1C2040201C3C4017
:1022900030403C44281028444C9090907C44645436
:1022A0004C44000836410000007700000041360829
:1022B0000002010204023C2623263C1EA1A1611259
:1022C0003A4040207A385454555921555579412186
:1022D00054547841215554784020545579400C1E6F
:1022E0005272123955555559395454545939555417
:1022F00054580000457C410002457D420001457C68
:1023000040F0292429F0F0282528F07C5455450078
:102310002054547C547C0A097F493249494932325D
:1023200048484832324A4848303A4141217A3A4294
:10233000402078009DA0A07D39444444393D404070
:10234000403D3C24FF2424487E4943662B2FFC2F2C
:102350002BFF0929F620C0887E09032054547941B7
:102360000000447D413048484A32384040227A00DB
:102370007A0A0A727D0D19317D2629292F282629EE
:1023800029292630484D4020380808080808080840
:1023900008382F10C8ACBA2F102834FA00007B0080
:1023A0000008142A142222142A14089500220095E9
:1023B000AA005500AAAA55AA55AA000000FF0010BD
:1023C0001010FF00141414FF001010FF00FF101075
:1023D000F010F0141414FC001414F700FF0000FFB8
:1023E00000FF1414F404FC141417101F10101F1015
:1023F0001F1414141F00101010F0000000001F1014
:102400001010101F10101010F010000000FF10101E
:1024100010101010101010FF10000000FF1400002A
:10242000FF00FF00001F10170000FC04F414141735
:1024300010171414F404F40000FF00F7141414141B
:10244000141414F700F7141414171410101F101F8D
:10245000141414F4141010F010F000001F101F00DA
:1024600000001F14000000FC140000F010F0101019
:10247000FF10FF141414FF141010101F00000000B0
:10248000F010FFFFFFFFFFF0F0F0F0F0FFFFFF00A4
:1024900000000000FFFF0F0F0F0F0F3844443844B7
:1024A0007C2A2A3E147E02020606027E027E026317
:1024B000554941633844443C04407E201E200602B6
:1024C0007E020299A5E7A5991C2A492A1C4C720193
:1024D000724C304A4D4D303048784830BC625A46D4
:1024E0003D3E494949007E0101017E2A2A2A2A2AC5
:1024F00044445F444440514A444040444A514000AF
:1025000000FF0103E080FF000008086B6B08361233
:10251000362436060F090F060000181800000010B8
:1025200010003040FF0101001F01011E00191D179E
:1025300012003C3C3C3C000000000001020408107A
:1025400020408000E03211241FBECFEFDAE0DEBF72
:10255000CDBF11E0A0E0B1E0E8EAFBE602C00590E3
:102560000D92A634B107D9F726E0A6E4B1E001C088
:102570001D92AA3FB207E1F712E1C3EAD2E104C01B
:102580002197FE010E94C735C23AD107C9F70E94C0
:102590003D2E0C94D2350C9400008F929F92AF92F6
:1025A000BF92CF92DF92EF92FF920F931F93CF9340
:1025B000DF9381E0809352011092510110925001FB
:1025C00010924F0110924E0110924D010E941F2750
:1025D00080914502811114C08091350263E00E9410
:1025E000BB3580918701980F909363019C3040F038
:1025F0006BE070E080E090E00E948E1B60936301CE
:10260000809145028130D9F42091870130E040E08B
:1026100050E060E070E0CB010E94B21B6093440286
:10262000693040F068E070E080E090E00E948E1B2E
:102630006093440280914402845F8093630180919F
:102640004502823041F4E091F106F0E0EB5BF54F9A
:10265000E491E09363016091630128E0629FA0012F
:10266000112480E0282F30E0F901E40FF51FEB572B
:10267000F64FE491D901A55ABE4FEC938F5F883095
:1026800089F78093390236E0639FC0011124FC0171
:10269000EB50F74FE4914E2F50E050934C01409394
:1026A0004B01FC01EA50F74FE491E0935A01FC0121
:1026B000E950F74FE491E0935901FC01E850F74FDE
:1026C000E491E0934A01FC01E750F74F249130E098
:1026D0003093580120935701FC01E650F74F849145
:1026E00090E090934102809340026531C8F063E02E
:1026F000440F551F6A95E1F750934C0140934B01ED
:10270000880F991F880F991F909341028093400270
:10271000220F331F220F331F30935801209357018C
:10272000109288061092870610928A0610928906E7
:1027300081EF98E00E9468268091890190918A013A
:102740000E94E9268FEE98E00E946826809185011C
:10275000909186010E94E9261092880610928706C1
:1027600088E090E090938A06809389068BEE98E04B
:102770000E94682680914B0190914C010E94E926AD
:1027800001E020E240E260E170E080E390E00E943E
:10279000C026E2EAF3E09EE19E0F9E1721F08081C1
:1027A0008D7F8193FACFE2E2F5E09EE19E0F9E17C6
:1027B00021F080818F7B8193FACF20E04EE161E1AF
:1027C00070E081E390E00E94892620E04EE161E123
:1027D00070E08EE490E00E9489268091450281118C
:1027E00011C04091630180E2489FA0011124455926
:1027F000584FE12C00E120E168E170E088E390E0CF
:102800000E944B2C809145028823A9F0809163019E
:1028100090E00C9728E4289FA001299F500D1124D7
:10282000455F5B4FE12C08E128E164E170E084E35F
:1028300090E00E944B2C109288061092870680E34D
:1028400090E090938A068093890610923902E09175
:102850003902E83071F0F0E0E55AFE4F608181E71F
:1028600096E00E94EE2B809139028F5F80933902AF
:10287000EECF8EEF93E00E9468260E941C2166E056
:1028800070E080E090E00E948E1B60934402613013
:1028900009F06BC300E020E240E860E370E080E014
:1028A00090E00E94C026109288061092870680E36E
:1028B00090E090938A068093890610923902E09105
:1028C0003902E83071F0F0E0E55AFE4F608181E7AF
:1028D00096E00E94EE2B809139028F5F809339023F
:1028E000EECF82EE93E00E9468260E941C21B3E0A6
:1028F000DB2EC1E0D0E012E0C12E11E00AE0E02EB4
:10290000F12C80915101813031F500E020E240E866
:1029100060E370E080E090E00E94C026109288069C
:102920001092870680E390E090938A068093890650
:1029300088E493E00E94682680913502817080933C
:102940004402813009F00FC381E393E00E946826BE
:102950001092510108C3809149018A3211F580918A
:1029600037028033F1F48091630181111AC000E0D5
:1029700020E240E860E370E080E090E00E94C02642
:10298000109288061092870680E390E090938A0662
:10299000809389068AE093E00E9468260E941C21A9
:1029A0005CC600E020E240E860E370E080E090E098
:1029B0000E94C026109288061092870680E390E05D
:1029C00090938A068093890610923902E091390229
:1029D000E83071F0F0E0E55AFE4F608181E796E063
:1029E0000E94EE2B809139028F5F80933902EECFE7
:1029F000809135026D2D0E94BB359093440299233E
:102A0000E9F187EF92E00E94682660915901062F54
:102A10000695802F90E0909356018093550170E0C9
:102A200080E090E00E94C23420E030E040EA5FE3C2
:102A30000E944E350E948A34709354016093530172
:102A40009B01770F440B550B602F70E080E090E006
:102A50000E94B21B2091810130E0621B730B8091B8
:102A60008001681B710980914D0190914E01681B96
:102A7000790B709348016093470113C180915A010B
:102A8000882309F4BECF815080935A0110924202EC
:102A9000E09163018E2F90E08831910508F0F9C034
:102AA000FC01EA5AFF4F0C94C7358CE092E00E947B
:102AB00068266091590170E080E090E00E94C23485
:102AC00020E030E040EA5FE30E944E354B015C01BC
:102AD00080918101682F70E080E090E00E94C23414
:102AE0009B01AC01C501B4010E941D344B015C0186
:102AF00080918001682F70E080E090E00E94C234F5
:102B00009B01AC01C501B4010E941D340E948A34AE
:102B10007093480160934701BCC086EF91E00E942A
:102B20006826F0924801E0924701B3C089EE91E037
:102B30000E94682680915901982F990F9E5F869573
:102B400086958695890F809359014DC088EC91E058
:102B50000E9468261093900146C085EA91E00E9489
:102B6000682680914B0190914C01449690934C01C2
:102B700080934B0138C082E991E00E9468268091E1
:102B80004A0192E0980F869586958695890F8093E5
:102B90004A0129C08BE791E00E9468268091590183
:102BA00023E0829FC001112420918101821B9109A1
:102BB00020918001821B910968C088E591E00E9404
:102BC000682680914D0190914E010A9790934E0195
:102BD00080934D0180914F01909150010A979093FD
:102BE000500180934F011093420253C081E491E061
:102BF0000E94682660915901062F0695802F90E06B
:102C0000909356018093550170E080E090E00E941F
:102C1000C23420E030E040EA5FE30E944E350E947B
:102C20008A3470935401609353019B01770F440BD6
:102C3000550B602F70E080E090E00E94B21B209165
:102C4000810130E0621B730B80918001681B710968
:102C500080914D0190914E01AB01481B590B50934F
:102C6000480140934701C092900113C08AE291E06D
:102C70000E9468266EE170E080E090E00E948E1B6A
:102C8000DC01CB014496A11DB11D909348018093B6
:102C9000470180914202882321F0813009F0B1CEB2
:102CA00064C0809149018A3291F480913702803367
:102CB00071F4809147019091480197FD0396959595
:102CC00087959595879590934801809347018091CA
:102CD00047019091480197FF04C0D0934801C093E9
:102CE000470180914701909148010E94E926809117
:102CF000890190918A012091470130914801821BFE
:102D0000930B97FD05C090938A018093890104C0BD
:102D100010928A01109289018BEE92E00E9468263F
:102D200000E028E040E860E070E080E090E00E9491
:102D3000C026109288061092870610928A0610927A
:102D4000890687EE92E00E94682680918901909121
:102D50008A010E94E92685EE92E00E946826809111
:102D60008501909186010E94E9260E941C21809194
:102D70009001813071F500E020E240E860E370E00E
:102D800080E090E00E94C02610928806109287068C
:102D900080E390E090938A068093890662E070E079
:102DA00080E090E00E948E1B60934402611104C099
:102DB0008EEC92E00E94682680914402813031F4CA
:102DC0008FEA92E00E946826109290010E941C21D6
:102DD00098CD823009F068C000E020E240E860E36E
:102DE00070E080E090E00E94C02610928806109269
:102DF000870680E390E090938A068093890680910D
:102E000085019091860197FD0F9674E095958795C1
:102E10007A95E1F7909348018093470120918901C9
:102E200030918A01A901481B590B50938A014093A4
:102E3000890157FF04C010928A011092890181EA2A
:102E400092E00E94682680914701909148010E947B
:102E5000E9268EE892E00E94682600E028E040E83B
:102E600060E070E080E090E00E94C026109288064A
:102E70001092870610928A06109289068AE892E0DC
:102E80000E9468268091890190918A010E94E9261A
:102E900088E892E00E9468268091850190918601E1
:102EA0000E94E9260E941C218091890190918A014B
:102EB000181619060CF459C080E001C0892F86301D
:102EC00009F4C6C3E82FF0E091E0980FEE50F94FF7
:102ED0002081283099F780934601108280918501E6
:102EE0009091860190938A018093890100E020E20D
:102EF00040E860E370E080E090E00E94C02610921D
:102F000088061092870680E390E090938A0680936B
:102F10008906109290018DE692E00E94682628E0D2
:102F200040E860E070E080E090E00E94C0261092EF
:102F300088061092870610928A061092890689E602
:102F400092E00E9468268091890190918A010E94F6
:102F5000E92687E692E00E9468268091850190919B
:102F600086010E94E9260E941C2148E0A42EB12C73
:102F700010E35AE2D52E67E3F62E00E020E240E8A7
:102F800060E370E080E090E00E94C026B092880686
:102F9000A092870680E390E090938A06809389064A
:102FA00080E191E00E94682610924202109337025D
:102FB00010924901CC24C394E12C01E02EE340E3BC
:102FC00050E060E070E081E796E00E944C2B60ECFE
:102FD00070E080E090E00E94D41B9924939480914B
:102FE000420281118FC061E070E080E090E00E94B9
:102FF000D41B809135028F5F809335020E945D1C47
:1030000083FD909242020E945D1C87FF1AC0C0910E
:103010004901D0E04091370250E0CC24C394E12C28
:1030200001E020E2BE0181E796E00E944C2B109364
:1030300037022EE340E350E0BE0181E796E00E94B4
:103040004C2B0E945D1C85FF1BC04091370250E055
:103050006091490170E0CC24C394E12C01E020E2AE
:1030600081E796E00E944C2B109249014091370273
:1030700050E02EE360E070E081E796E00E944C2B88
:103080000E945D1C84FF1AC0C0914901D0E04091AC
:10309000370250E0CC24C394E12C01E020E2BE01D1
:1030A00081E796E00E944C2BF09237022EE347E333
:1030B00050E0BE0181E796E00E944C2B0E945D1C0F
:1030C00086FF1BC04091370250E06091490170E0DB
:1030D000CC24C394E12C01E020E281E796E00E9439
:1030E0004C2BD09249014091370250E02EE36AE226
:1030F00070E081E796E00E944C2B85E796E00E9405
:10310000392C6DCF00E020E240E860E370E080E021
:1031100090E00E94C02680914901811105C08091F4
:1031200037028033A9F449C08A3209F026CF809152
:1031300037028033D9F4109288061092870680E314
:1031400090E090938A06809389068EEC93E0CBCB37
:10315000873309F012CF0E94BF2180914202823052
:1031600009F4C5CB833009F008CFABC0873309F031
:1031700004CF109288061092870680E390E0909327
:103180008A06809389068091350283708093390284
:10319000813081F480914502823061F001E02EE1BE
:1031A0004EE161E170E081E390E00E94C02685EC91
:1031B00093E0F2CB8CEB93E096CB109288061092C2
:1031C000870680E390E090938A068093890680EBDF
:1031D00093E00E94682610923902E0913902E830AB
:1031E00071F0F0E0E55AFE4F608181E796E00E94C1
:1031F000EE2B809139028F5F80933902EECF809160
:103200006301843011F0873169F463E070E080E09D
:1032100090E00E948E1B60934402613019F482EAB0
:1032200093E061CB8CE993E00E9468266091840171
:1032300070E080914F019091500120918301EB014A
:10324000C20FD11DC80FD91FD7FD2196D595C7959F
:10325000D0935601C093550120918201620F711DD8
:10326000680F791F072E000C880B990B0E94C2343F
:1032700020E030E040EA5FE30E944E350E948A344D
:1032800070935401609353019B01770F440B550BCE
:10329000BE01DD0F880B990B0E94B21B20914A01E1
:1032A00030E0621B730B161617062CF4709348015E
:1032B0006093470106C081E090E0909348018093BD
:1032C000470180914701909148010E94E92683E9D6
:1032D00093E00E94682680914B0190914C012091CF
:1032E000470130914801EC01C21BD30BD0934C0134
:1032F000C0934B0180915101823009F05AC00E9465
:103300001C2100E020E240E860E370E080E090E013
:103310000E94C026CE01D7FD0796F3E095958795CC
:10332000FA95E1F79093480180934701109288063F
:1033300010928706C0E3D0E0D0938A06C093890636
:1033400084E893E00E9468268091470190914801AB
:103350000E94E92684E793E00E9468260E941C21CF
:1033600080916301843128F163E070E080E090E0B7
:103370000E948E1B609344026130C9F40E941C219C
:1033800000E020E240E860E370E080E090E00E942E
:10339000C0261092880610928706D0938A06C093A2
:1033A000890683E693E00E946826109251010E94EC
:1033B0001C2180914B0190914C0197FF04C0109209
:1033C0004C0110924B0100E028E040E868E070E01A
:1033D00080E090E00E94C026109288061092870636
:1033E00088E090E090938A06809389068DE593E0CB
:1033F0000E94682680914B0190914C010E94E92621
:103400000E941C2180914B0190914C01892B09F065
:103410006ECA01E020E240E260E170E080E390E00B
:103420000E94C02600E020E240E860E370E080E017
:1034300090E00E94C026109288061092870680E3D2
:1034400090E090938A068093890683E592E00E943B
:1034500068268EE492E00E94682680915701909140
:1034600058010E94E92687E492E00E946826809134
:103470004002909141020E943227209166013091D2
:1034800067018091570190915801820F931F90938B
:1034900067018093660120916401309165018091FC
:1034A000400290914102820F931F90936501809397
:1034B00064010E941C2138E0E32EF12C00E110E0B1
:1034C000C8E1D0E0E0918801F0E0EE0FFF1FEB597A
:1034D000F54F8591949120916601309167012817ED
:1034E000390708F4BAC00E941F271092880610926C
:1034F000870610928A06109289068BE392E00E945A
:1035000068261092880610928706F0928A06E0924A
:10351000890684E392E00E9468268091850190915B
:1035200086010E94E92680E392E00E94682669E015
:1035300070E080E090E00E948E1B8090850190906A
:103540008601092C000CAA08BB08DC01CB010596FA
:10355000A11DB11D880D991DAA1DBB1D909386014B
:10356000809385010E94E9268091850190918601D2
:1035700090938A01809389011092880610928706A1
:1035800010938A06009389068BE292E00E946826D7
:10359000809184010E94E22687E292E00E946826E0
:1035A00063E070E080E090E00E948E1B2091840137
:1035B000DC01CB010196A11DB11D820F911DA11D42
:1035C000B11D809384010E94E22610928806109219
:1035D0008706D0938A06C093890682E292E00E9411
:1035E0006826809181010E94E2268EE192E00E948D
:1035F000682661E070E080E090E00E948E1BDC01B4
:10360000CB010196A11DB11D20918101820F911D59
:10361000A11DB11D809381010E94E2268091880145
:10362000E82FF0E0EE0FFF1FEB59F54F4591549155
:103630002091660130916701241B350B309367019F
:10364000209366018F5F809388010E941C213ACFEE
:103650008093460183E08093380210925201DF91FB
:10366000CF911F910F91FF90EF90DF90CF90BF907F
:10367000AF909F908F900895CF92DF92EF92FF923C
:103680000F931F93CF93DF936C017A018B01C0E0FE
:10369000D0E0CE15DF0589F0D8016D918D01D601FE
:1036A000ED91FC910190F081E02DC6010995892BE7
:1036B00011F47E0102C02196ECCFC701DF91CF91BA
:1036C0001F910F91FF90EF90DF90CF9008953FB73B
:1036D000F89480913B0290913C02A0913D02B09100
:1036E0003E0226B5A89B05C02F3F19F00196A11DEB
:1036F000B11D3FBFBA2FA92F982F8827820F911D88
:10370000A11DB11DBC01CD0142E0660F771F881FCE
:10371000991F4A95D1F708950E94CD35CF93DF9335
:1037200000D000D0CDB7DEB76115710581059105D8
:1037300079F09B01AC0169833A834B835C830E94DF
:10374000A43329813A814B815C810E94BA3303C042
:1037500060E070E0CB010F900F900F900F90DF9121
:10376000CF910895CF92DF92EF92FF920F931F9324
:10377000621773078407950784F489019A016B0126
:103780007C01C901B8016C197D098E099F090E944D
:103790008E1B6C0D7D1D8E1D9F1D1F910F91FF9027
:1037A000EF90DF90CF9008958F929F92AF92BF924B
:1037B000CF92DF92EF92FF926B017C010E94671B18
:1037C0004B015C01C114D104E104F104F1F00E9449
:1037D000671BDC01CB0188199909AA09BB09883E3E
:1037E0009340A105B10570F321E0C21AD108E108A8
:1037F000F10888EE880E83E0981EA11CB11CC1144C
:10380000D104E104F10419F7DDCFFF90EF90DF90D0
:10381000CF90BF90AF909F908F9008951F920F927E
:103820000FB60F9211242F933F938F939F93AF93D3
:10383000BF9380916D0290916E02A0916F02B09142
:10384000700230913A0223E0230F2D3720F40196C5
:10385000A11DB11D05C026E8230F0296A11DB11DB3
:1038600020933A0280936D0290936E02A0936F02B0
:10387000B093700280913B0290913C02A0913D0276
:10388000B0913E020196A11DB11D80933B02909321
:103890003C02A0933D02B0933E02BF91AF919F9135
:1038A0008F913F912F910F900FBE0F901F90189501
:1038B000BC0180E090E00C94D41B8FB12CB193B18B
:1038C00030E02095309520743327A90123E05595E9
:1038D00047952A95E1F7292F30E020953095207102
:1038E00033273595279535952795242B8095807F0F
:1038F000822B08950F93CF93DF9380919201E091F3
:103900009101F0E0EC56FE4F98E0899FE00DF11D2B
:1039100011248081809368028930F1F46AE070E0BC
:1039200080E090E00E948E1BDC01CB010396A11D7C
:10393000B11D893009F484E08093680280916802A7
:10394000873019F48CE08093680280916802883097
:1039500019F484E08093680210928B01E091680270
:103960008E2F90E08031910508F054C4FC01E2599B
:10397000FF4F0C94C73580918F01882309F471C3E0
:10398000815076C3109288061092870610928A069C
:10399000109289068DEA95E10E9468268091350291
:1039A0008770809344028430C1F178F4813059F1FA
:1039B000823009F058C08DE895E10E946826809118
:1039C000890190918A01029731C0863009F443C081
:1039D00090F1873009F047C082E395E10E946826A4
:1039E0008091890190918A010A9790938A0180932E
:1039F000890180916401909165010A969093650117
:103A00008093640134C08CE995E10E94682680911E
:103A1000890190918A01059709C08DE795E10E947F
:103A200068268091890190918A010A9790938A0172
:103A3000809389011CC08AE695E10E9468268091E6
:103A4000890190918A01059690938A01809389015A
:103A5000109290010CC08CE595E10E94682682E0EE
:103A60008093900104C085E295E10E9468268091D0
:103A70008501909186012091890130918A018217F8
:103A8000930724F490938A0180938901809189019E
:103A900090918A0197FF04C010928A0110928901C7
:103AA00080E295E10E9468268091890190918A01C7
:103AB0000E94E92634C01092450260C381E05CC3D5
:103AC000109288061092870610928A061092890634
:103AD0008CEB95E10E9468266FEA70E080E090E050
:103AE0000E948E1BDC01CB01C296A11DB11D9093DB
:103AF0004102809340020E94322786EB95E10E94AA
:103B00006826209164013091650180914002909176
:103B10004102820F931F90936501809364010E947C
:103B20001C2178C3109288061092870610928A068C
:103B30001092890688E596E10E94682680916401CA
:103B4000909165010E943227E091F906F0E0EE0FB6
:103B5000FF1FEA5CF94E85919491909367028093E0
:103B6000660281E396E10E94682680916602909148
:103B700067020E943227E091F806F0E0EE0FFF1F87
:103B8000E15FF94E85919491909365028093640270
:103B90008AE096E10E946826809164029091650215
:103BA0000E94322700E020E140E860E370E080E01E
:103BB00090E00E94C02688E090E090938806809371
:103BC000870680E390E090938A0680938906E091CF
:103BD000F90681E08E0F809363029CE0899FA0012B
:103BE000112490E0292F30E0F901E40FF51FE1598D
:103BF000F04EE491D901A95ABD4FEC939F5F9C30E0
:103C000089F7E82FF0E0EE0FFF1FEA5CF94E85918F
:103C10009491909356028093550210923902E0914C
:103C20003902EC3071F0F0E0E95AFD4F608181E734
:103C300096E00E94EE2B809139028F5F80933902CB
:103C4000EECF88E096E10E9468268091550290911F
:103C500056020E94322785E096E10E946826E09194
:103C6000F80681E08E0F809354029CE0899FA001AA
:103C7000112490E0292F30E0F901E40FF51FEF57F0
:103C8000F14EE491D901A85BBD4FEC939F5F9C304E
:103C900089F7E82FF0E0EE0FFF1FE15FF94E859105
:103CA0009491909347028093460210923902E091DA
:103CB0003902EC3071F0F0E0E85BFD4F608181E7A4
:103CC00096E00E94EE2B809139028F5F809339023B
:103CD000EECF83E096E10E946826809146029091A3
:103CE00047020E9432270E94422100E020E140E882
:103CF00060E370E080E090E00E94C02610928806A9
:103D00001092870680E390E090938A06809389065C
:103D100080914202843009F4A4C18091370280333B
:103D200009F048C0209155023091560280916602F8
:103D3000909167024091640150916501B901681B3F
:103D4000790B4617570790F1840F951F821B930B31
:103D50009093650180936401809163028093F906DA
:103D60009CE0899FA001112490E0292F30E0F90107
:103D7000E40FF51FE159F04EE491D901AC58BE4F64
:103D8000EC939F5F9C3089F79093390290E0FC019F
:103D9000E25AF04EE491E0938301FC01E35BF04EC4
:103DA000E491E093820184EF95E102C083EE95E116
:103DB0000E94682680913702873309F050C1209114
:103DC00046023091470280916402909165024091D1
:103DD000640150916501B901681B790B46175707BB
:103DE00060F1840F951F821B930B90936501809364
:103DF0006401809154028093F8069CE0899FA001A1
:103E0000112490E0292F30E0F901E40FF51FEF575E
:103E1000F14EE491D901A859BE4FEC939F5F9C30BD
:103E200089F790933902E82FF0E0E059F14EE491E0
:103E3000E093800185ED95E110C184EC95E10DC121
:103E400081E080938B011092880610928706109271
:103E50008A061092890684EC96E10E9468260E94E8
:103E6000762400E020E140E860E370E080E090E04C
:103E70000E94C026109288061092870680E390E088
:103E800090938A068093890680913702803361F48B
:103E90008091640190916501C39730F486EA96E1C0
:103EA0000E9468260E941C2180913702803309F00D
:103EB000B1C18091640190916501C29708F4AAC1D3
:103EC0008FE996E10E9468260E941C2180E996E114
:103ED0000E94682610929001809164019091650182
:103EE000C2979093650180936401809185019091C0
:103EF000860190938A01809389010E941C2110926F
:103F00008B0188C1109288061092870610928A064B
:103F10001092890688E597E10E9468260E9476241F
:103F200000E020E140E860E370E080E090E00E9483
:103F3000C0261092880610928706C0E3D0E0D09386
:103F40008A06C093890680913702803319F087333F
:103F5000E9F0E5CD8CE497E10E9468268091890123
:103F600090918A01C29690938A0180938901109260
:103F700090012091850130918601281739070CF0B6
:103F8000CECD30938A0120938901C9CD82E0809300
:103F900044020E94912483E397E10E946826809165
:103FA0004302813009F0BBCD84E297E10E9468268C
:103FB0000E941C2100E020E140E860E370E080E026
:103FC00090E00E94C0261092880610928706D09337
:103FD0008A06C093890682E097E10E9468269FCDF9
:103FE000109288061092870610928A06109289060F
:103FF0008DEA97E10E9468260E94762400E020E185
:1040000040E860E370E080E090E00E94C0261092FB
:1040100088061092870680E390E090938A0680934A
:10402000890680913702803331F0873309F0F2C07E
:1040300088E997E112C08091350266E00E94BB35A5
:104040009B5F909344020E949124809143028130AF
:1040500009F0E0C08DE697E1C0CF0E9468260E947B
:104060001C2181E080938B01D5C080918F018F5FEF
:1040700080938F01CFC0109288061092870610920D
:104080008A061092890680E498E10E9468260E94C0
:10409000762400E020E140E860E370E080E090E01A
:1040A0000E94C026109288061092870680E390E056
:1040B00090938A068093890680913702803369F055
:1040C000873309F02CCD8DED97E10E9468260E9480
:1040D0001C2181E080938B0122CD8091350265E027
:1040E0000E94BB359F5F90934402933081F018F497
:1040F000923041F004C0943069F0953071F088E35B
:1041000098E102C082E398E10E94682613C08BE226
:1041100098E1FACF85E298E1F7CF87E198E10E9434
:10412000682680916401909165014996909365019C
:10413000809364010E94912480914302813009F0B0
:10414000EECC00E020E140E860E370E080E090E049
:104150000E94C026109288061092870680E390E0A5
:1041600090938A06809389068FEE97E10E946826D5
:104170000E941C21D4CC82E0809345020E94CD1283
:1041800049C010928F01809187018F5F80938701D2
:104190009091F1069F5F9093F106853011F421E034
:1041A00003C08A3019F422E0209334029D3020F0BD
:1041B00084E08093380219C09C3069F480919301A7
:1041C000863498F06BE070E080E090E00E948E1BF7
:1041D0006093F1060AC08D3020F08BE08093F106E9
:1041E00004C080913602813069F38091F106282F56
:1041F00030E0F901ED59F14EE491E0939101F901BC
:10420000EA5AF14EE491E0939201DF91CF910F9140
:104210000C94AD2480918C01E0918D01F0E0EC567E
:10422000FE4F98E0899FE00DF11D112482E080830C
:10423000DF91CF910F910895CF9385E796E00E948B
:10424000392C6EEB70E080E090E00E94D41B10925D
:104250004202C1E080914202811112C061E070E02F
:1042600080E090E00E94D41B809135028F5F8093A4
:1042700035020E945D1C83FFEDCFC0934202EACF5E
:10428000CF910895CF92EF920F931F93CF93DF9327
:104290001092420280E380933702CC24C394E12C35
:1042A00001E02EE340E350E060E070E081E796E05B
:1042B0000E944C2B60EC70E080E090E00E94D41BE8
:1042C000C1E0D0E317E380914202811151C061E067
:1042D00070E080E090E00E94D41B0E945D1C83FD92
:1042E000C09342020E945D1C982F947082FD9093AF
:1042F00042020E945D1C87FF19C04091370250E0C6
:10430000CC24C394E12C01E020E260E070E081E77E
:1043100096E00E944C2BD09337022EE340E350E00E
:1043200060E070E081E796E00E944C2B0E945D1CEB
:1043300084FF19C04091370250E0CC24C394E12C93
:1043400001E020E260E070E081E796E00E944C2B03
:10435000109337022EE347E350E060E070E081E71E
:1043600096E00E944C2B85E796E00E94392CABCF5B
:10437000DF91CF911F910F91EF90CF900895CF9241
:10438000DF92EF92FF920F931F93CF93DF9300E0A2
:1043900020E240E860E370E080E090E00E94C02608
:1043A000109288061092870680E390E090938A0628
:1043B000809389068FED9DE10E9468261092460148
:1043C00080914601863099F110923902E0913902CC
:1043D000E630D9F0A0914601B0E0AE50B94F8C91D3
:1043E000F0E096E0899FE00DF11D1124E356F24EB6
:1043F00064916093440281E796E00E94EE2B8091E5
:1044000039028F5F80933902E1CF8BE99DE10E94F1
:10441000682680914601823021F488E99DE10E945E
:104420006826809146018F5F80934601C9CF109224
:10443000420280E380933702109249018CE380931B
:104440008E01D2E011E030E3F32ECCE347E3D42E2B
:1044500080914202811178C063E070E080E090E0DA
:104460000E94D41B809135028F5F8093350280912A
:104470008E01882319F0815080938E0180918E01E6
:104480008111E6CF0E945D1C83FDD09342020E9401
:104490005D1C82FD109342020E945D1C87FF1DC0BF
:1044A0004091370250E06091490170E0CC24C39400
:1044B000E12C01E020E281E796E00E944C2BF09293
:1044C00037026091490170E02EE340E350E081E75C
:1044D00096E00E944C2BC0938E010E945D1C85FFCC
:1044E00004C0609149016111B8C10E945D1C84FF44
:1044F0001DC04091370250E06091490170E0CC242A
:10450000C394E12C01E020E281E796E00E944C2B6D
:10451000D09237026091490170E02EE347E350E00A
:1045200081E796E00E944C2BC0938E010E945D1C97
:1045300086FF05C060914901613508F4ACC185E78B
:1045400096E00E94392C84CF823009F0C6C1809158
:104550003702803309F0BDC11092430280914901B6
:104560006AE20E94BB358093490190914302890F12
:104570008093460180915201882329F100E020E2D6
:1045800040E860E370E080E090E00E94C026109276
:1045900088061092870680E390E090938A068093C5
:1045A0008906E0914601F0E0EE50F94FE0818E2F50
:1045B00090E0FC013197EA30F10508F039C1E2588A
:1045C000FF4F0C94C7351092880610928706109200
:1045D0008A061092890610923902E0913902E6307B
:1045E000D9F0A0914601B0E0AE50B94F8C91F0E007
:1045F00096E0899FE00DF11D1124E356F24E64917F
:104600006093440281E796E00E94EE2B809139028C
:104610008F5F80933902E1CF00E020E840E260E361
:1046200070E080E090E00E94C02686E090E09093E9
:1046300088068093870680E390E090938A068093B3
:10464000890685E89CE10E9468260E9442218091AB
:104650003702873331F4E0914601F0E0EE50F94F34
:10466000108280914202843009F088CF36C182E8FE
:104670009DE10E946826109290018091890190919D
:104680008A018C599F4F23C08DE69DE10E946826C8
:10469000109290018091890190918A01C29617C071
:1046A00088E59DE10E946826109290018091890121
:1046B00090918A014E960BC083E49DE10E9468268A
:1046C000109290018091890190918A010F969093A8
:1046D0008A018093890120918501309186012817F4
:1046E000390724F430938A0120938901809189014C
:1046F00090918A010E94E92685E796E00E94392C74
:104700007BC080915201882309F499C080914B01AC
:1047100090914C0197FD019695958795909348014E
:1047200080934701459734F484E190E090934801E9
:104730008093470183E0809342028FE29DE176C03F
:1047400080915201882309F47AC085E090E090932B
:1047500048018093470110924A0183E0809342020E
:1047600085E19DE163C080915201882309F467C00F
:104770008AE090E0909348018093470110924A01AB
:1047800083E08093420281E0809351018FEF9CE1AE
:104790004DC080915201882309F451C08091850158
:1047A0009091860190938A018093890182E08093A1
:1047B00042021092900188EE9CE10E9468260E94BD
:1047C0001C2136C0809152018823C9F180914F018C
:1047D0009091500188969093500180934F01809161
:1047E0004D0190914E01889690934E0180934D011A
:1047F00081EC9CE10E9468260E941C2182E080934B
:10480000420216C0809152018823C9F08AE090E0EC
:10481000909348018093470110924A0183E080936E
:10482000420282E08093510188EA9CE10E9468265E
:10483000E0914601F0E0EE50F94F10824EC08FE853
:104840009CE10E946826DF91CF911F910F91FF900C
:10485000EF90DF90CF900C941C214091370250E0F4
:1048600070E0CC24C394E12C01E020E281E796E0E3
:104870000E944C2B609149016A526093490140911A
:10488000370250E070E02EE381E796E00E944C2B67
:10489000C0938E012ACE4091370250E070E0CC24C4
:1048A000C394E12C01E020E281E796E00E944C2BCA
:1048B00060914901665D609349014091370250E083
:1048C00070E02EE381E796E00E944C2BC0938E01AE
:1048D00036CE83E08093430241CEDF91CF911F918A
:1048E0000F91FF90EF90DF90CF9008950F9300E02D
:1048F00020E140E260E370E080E090E00E94C026AA
:10490000E1E7F6E086E090E0978B868B81E390E02C
:10491000918F808F8DE79CE10E9468260F910C9407
:1049200042211092430280E0863089F0E82FF0E0C7
:1049300091E0980FEE50F94F2081211106C080932D
:1049400046018091440280830895892FEDCF8093A2
:10495000460181E080934302089590E5899FA0017C
:10496000112420E090E0FA01E90FF11DE359F74E20
:10497000E4918E2F8F70E295EF70A22FB0E0AC56CD
:10498000BE4FEC93A1E0A20FB0E0AC56BE4F8C93AB
:104990002E5F9F5F903539F780933702E093430293
:1049A00080EA80934901909339020895FC01809137
:1049B0006C02811103C08FEF9FEF08959FB7F894A9
:1049C00082E08093E9002091F20030E01216130695
:1049D00014F421E030E02115310559F0289884E6DF
:1049E00080936B028091F10080838091F200882394
:1049F00019F09FBFC90108958BE68093E800F9CFB5
:104A00002FB7F89483E08093E9009091E800892F14
:104A1000807295FF04C09091F20080E4891B2FBF43
:104A20000895CF93DF931F92CDB7DEB76983DC0182
:104A3000ED91FC910280F381E02D41E050E0BE0158
:104A40006F5F7F4F09950F90DF91CF91089583E0BD
:104A50008093E9008091F200882319F08AE3809323
:104A6000E80008950E94002590E00895CF93DF9319
:104A70001F92CDB7DEB7FC018485958597FD05C0F3
:104A80002FEF3FEF358724870BC0CE0101960E94A0
:104A9000D624019719F4898190E002C08FEF9FEF2F
:104AA0000F90DF91CF9108950F931F93CF93DF93D2
:104AB0001F92CDB7DEB78C01FC018485958597FFE9
:104AC0000EC0CE0101960E94D624019719F42981C7
:104AD00030E002C02FEF3FEFF80135872487F8015F
:104AE000848595850F90DF91CF911F910F91089547
:104AF000FC018485958597FD0BC09FB7F89482E0F3
:104B00008093E9008091F2009FBF90E001960895A4
:104B10009FB7F89482E08093E9008091F2009FBFF4
:104B200090E008958F929F92AF92BF920F931F9340
:104B3000CF93DF93CDB7DEB7A1970FB6F894DEBF62
:104B40000FBECDBF19A2423008F44AE08E010F5DBE
:104B50001F4F842E912CA12CB12CA50194010E94F1
:104B6000EC33E62FB901CA0101501109EA3014F4FF
:104B7000E05D01C0E95CD801EC93232B242B252BAD
:104B800061F70115110571F0F80101900020E9F7B6
:104B90003197AF01401B510BB80181E796E00E94AD
:104BA0003C1B02C080E090E0A1960FB6F894DEBFF7
:104BB0000FBECDBFDF91CF911F910F91BF90AF90EE
:104BC0009F908F9008958F929F92AF92BF92CF92B5
:104BD000DF92EF92FF920F931F93CF93DF935C01CD
:104BE0006B017A0180910701882309F45BC08091F1
:104BF0006C02882309F456C080916A0280FF05C0C8
:104C00008091E00082608093E000E70110E00AEF0D
:104C100083E0882E9AE3992E2097D9F10E940025EF
:104C200081110AC0015009F43DC061E070E080E0EC
:104C300090E00E94D41BF0CF282F30E0C217D3079A
:104C40000CF48C2F4FB7F8948092E9009091E80013
:104C500095FF1DC0282F30E0C21BD30BF601982F03
:104C6000915020F081918093F100FACFC20ED31EB3
:104C7000112319F09092E80009C08091E80085FDA9
:104C800006C09092E80011E0209709F010E04FBFB5
:104C9000C3CF1111C3CF5D9884E6809369021E14BF
:104CA0001F0444F081E090E0F5019383828380E06B
:104CB00090E001C0C701DF91CF911F910F91FF904C
:104CC000EF90DF90CF90BF90AF909F908F9008951E
:104CD0000F931F93CF93DF938C01C0E0D0E0F801D6
:104CE000EC0FFD1F6491662371F0E0917106F09165
:104CF00072060190F081E02D81E796E00995892BFD
:104D000011F02196ECCFCE01DF91CF911F910F9141
:104D10000895CF92DF92EF92FF920F931F93CF935C
:104D2000DF931F92CDB7DEB77C018B01040F111DFD
:104D30006B0177FF14C0C12CD12C11C0C616D70649
:104D4000ACF480E8E816F10438F4422FB601C7014C
:104D500029830E94342B29818FEFC81AD80AB80101
:104D6000013411055CF360E470E0E8CF0F90DF914F
:104D7000CF911F910F91FF90EF90DF90CF9008950A
:104D8000CF92DF92EF92FF920F931F93CF93DF9317
:104D90006B01122FEC017C01E40EF11CCE15DF0536
:104DA00044F4202F412FB601CE010E94892621967E
:104DB000F5CFDF91CF911F910F91FF90EF90DF9092
:104DC000CF900895682F70E080E090E04AE00C9466
:104DD0009225CF92DF92EF92FF92CF93DF936C01F7
:104DE000990FEE08FF08F7FE1FC0E0917106F091E1
:104DF00072060190F081E02D6DE281E796E0099561
:104E0000EC0166277727CB016C197D098E099F0974
:104E10004AE00E9492258C0F9D1FDF91CF91FF9059
:104E2000EF90DF90CF9008954AE0C701B601DF917F
:104E3000CF91FF90EF90DF90CF900C94922580E07F
:104E4000E1E7F2E081118FEF002481938193819358
:104E500081930394D1F7E1E7F6E0118E108E178A63
:104E6000168A0895BC0180E090E04AE00C949225F7
:104E70000F931F93CF93DF931F92CDB7DEB78FB7FA
:104E8000F89440916D0250916E0260916F027091A2
:104E900070028FBF009181061091820620918306D7
:104EA0003091840680918506882349F080917D06A3
:104EB000481B409386061092850680E030C040175C
:104EC00051076207730740F4041B023040F18983E5
:104ED0000E94292B898123C081E08093850640931D
:104EE0007D0650937E0660937F06709380068091C6
:104EF0007C06480F511D611D711D40938106509322
:104F00008206609383067093840680917806909160
:104F100079060196909379068093780681E00F9048
:104F2000DF91CF911F910F91089580919306811188
:104F30000DC082E080938F0684E0809390061092EB
:104F400092061092910681E0809393068FE896E096
:104F500008954091EF065091F0062091ED063091B2
:104F6000EE0642175307B4F49091E8009570E1F310
:104F70009091E80092FD19C08093F1008091EF06B6
:104F80009091F00601968F739927892B19F48EEF73
:104F90008093E8008091EF069091F006019690933F
:104FA000F0068093EF0681E0089580E00895CF92A7
:104FB000DF92EF92FF920F931F93CF93DF931F9295
:104FC000CDB7DEB7182F062FE42E862F880F8E5F01
:104FD00099830E94A92783E00E94A927F12EC12E60
:104FE0009981D92E8C2D8F19801798F4F601E7FE40
:104FF00002C0849101C080810E94A927182F80E0FF
:105000000E94A9278123FFEFCF1ADF0A8111EACF7F
:1050100001C081E00F90DF91CF911F910F91FF9020
:10502000EF90DF90CF900895DF92EF92FF920F9371
:105030001F93CF93DF93D82E8A017B01E40EF51ED8
:10504000EB01CE15DF0571F0D7FE03C0FE018491A0
:1050500001C088810E94A92721968111F2CF8FEF8C
:105060009FEF01C0C801DF91CF911F910F91FF9079
:10507000EF90DF900895615030F02091F100FC0135
:1050800020830196F8CF289884E680936B020895D8
:105090000F931F93CF93DF931F92CDB7DEB782E0BC
:1050A000898342E450E061EE7DE180E80E941428AB
:1050B0000E949527DC0112960D911C911397011502
:1050C000110569F0D801ED91FC910280F381E02D8A
:1050D000BE016F5F7F4FC801099597FF07C08981A7
:1050E0000F90DF91CF911F910F910895F8010085E6
:1050F0001185E5CF1F920F920FB60F9211248F9357
:105100009F938091E1009091E100937F9093E10063
:1051100083FF0FC01092E90091E09093EB00109292
:10512000EC0092E39093ED0010926C0298E0909363
:10513000F00082FF20C093E09093E9009091F2008C
:10514000992319F09AE39093E800909169029923CA
:1051500039F090916902915090936902992389F1F5
:1051600090916B02992339F090916B02915090933A
:105170006B02992341F184FF10C08091E2008E7E82
:1051800081608093E2008091E1008F7E8093E10056
:1051900080916A028E7E806111C080FF16C080916E
:1051A000E2008E7E80618093E2008091E1008E7E3D
:1051B0008093E10080916A028E7E816080936A0212
:1051C00004C05D9ACDCF289AD6CF9F918F910F9032
:1051D0000FBE0F901F9018951F920F920FB60F924F
:1051E0001124CF92DF92EF92FF920F931F932F9390
:1051F0003F934F935F936F937F938F939F93AF935F
:10520000BF93EF93FF93CF93DF93CDB7DEB76C9748
:10521000DEBFCDBF1092E9008091E80083FFEDC1B1
:1052200068E0CE0145960E943B2882EF8093E8001B
:105230008D8987FF05C09091E80090FFFCCF03C0E7
:105240009EEF9093E800982F907609F0C6C09E8953
:105250002F89188D91110CC0803829F48091EC06AB
:105260008093F10002C01092F1001092F10048C149
:10527000422F50E0512B913051F4811141C1413006
:10528000510509F03DC18091EC068D7F0BC0933034
:1052900061F4811135C14130510509F031C180916E
:1052A000EC0682608093EC062BC1953041F480912E
:1052B000E80080FFFCCF20682093E30021C19630F6
:1052C00009F05FC0EB8CFC8C1092E9001092F006A4
:1052D0001092EF06123091F51092EE061092ED0644
:1052E0000E94482899E0BE016F5F7F4FDB01E92FE4
:1052F0001D92EA95E9F799831A8391E09E8390EADB
:1053000098879AEF99872091EF063091F006275FF2
:105310003F4F3C832B838D831092E9001092F0065F
:105320001092EF06F092EE06E092ED0649E050E0B2
:1053300080E00E9414280E944828E2C0F092EE0605
:10534000E092ED060E949527DC011296ED90FC900C
:105350001397E114F10409F4C0C0D701ED91FC9159
:105360000480F581E02DBE016B5E7F4FC70109957A
:10537000009719F00CF0C4C0C7C0F701E084F184B5
:10538000E8CF973009F4C0C0983021F481E08093D1
:10539000F100B6C0993009F0B3C0837009F0B4C011
:1053A000E7E3F1E081E021E036E39081992361F0C9
:1053B0008093E9002093EB0091919093EC0030935F
:1053C000ED008F5F873089F78EE78093EA001092B7
:1053D000EA008F8980936C0293C08B8D9C8D109214
:1053E000E9001092F0061092EF069093EE0680937B
:1053F000ED06898D811156C08E899D89913A59F4A7
:10540000813209F081C047E050E060E071E080E067
:105410000E94142875C0913209F076C0833289F455
:10542000888D90E0982F88272F89822BA0E0B0E00C
:105430008093080190930901A0930A01B0930B0196
:105440005FC0803269F48091E80082FFFCCF67E0A2
:1054500080E091E00E943B288BEF8093E80006C03B
:10546000823209F04DC08F89809307018091EB064D
:10547000882319F0EEEFFAE002C0E0E0F8E0809156
:10548000000190910101A0910201B0910301803BC4
:105490009440A105B10509F07BC08091070180FF10
:1054A00093C076C00E949527DC0112960D911C9145
:1054B00013970115110541F1D801ED91FC9101906F
:1054C000F081E02DBE016B5E7F4FC801099581110F
:1054D00017C0F80100851185ECCF113009F44EC0DA
:1054E000133091F48F89882309F445C0823081F408
:1054F00040E860E185E49EE10E94D727882321F0FF
:105500008EEF8093E80079C081E28093EB0075C054
:10551000813029F440E86BE089E39EE1EDCF8330F0
:1055200099F70E949527DC011296ED90FC90139755
:105530008E010F5F1F4F6801E114F10479F0D7016C
:10554000ED91FC910680F781E02DB801C701099526
:10555000080F111DF701E084F184EECFD8011C92F1
:10556000F60101900020E9F73197BF016C197D0920
:1055700040E0C601C1CF63E27EE102C067E27EE1A6
:105580006115710509F2FB01449150E080E840CFBC
:105590000FB6F894A89580916000886180936000B0
:1055A000109260000FBEA895EE3F2AE0F20739F096
:1055B0008091FE0A9091FF0A91838083A1CF10927F
:1055C000FF0A1092FE0A9CCFEE3F8AE0F80731F006
:1055D000808191819093FF0A8093FE0A87E797E785
:1055E000918380839BE088E10FB6F894A89580931F
:1055F00060000FBE9093600083CF6C960FB6F89456
:10560000DEBF0FBECDBFDF91CF91FF91EF91BF9174
:10561000AF919F918F917F916F915F914F913F914A
:105620002F911F910F91FF90EF90DF90CF900F90EF
:105630000FBE0F901F9018950895089580E090E098
:1056400008955C988EBD00000DB407FEFDCF5C9AF6
:10565000089583B7817F83BF83B7816083BF8895B7
:1056600083B78E7F83BF0895EBE3F5E290E1969FC9
:10567000D001A0781124A80F6770E60FF11D949156
:10568000AF58BD4F442319F08C91982B03C09095CF
:105690008C9198239C9308952F923F924F925F9202
:1056A0006F927F928F929F92AF92BF92CF92DF9232
:1056B000EF92FF920F931F93CF93DF9300D000D010
:1056C0001F92CDB7DEB7603871050CF06FC0403463
:1056D00051050CF06BC0CB0135E0C39E800D911DD0
:1056E0001124181619060CF061C02C2C312CCA019B
:1056F000E8E0CE9E800D911D1124181619060CF0BD
:1057000055C0F02E4A01F5E02F9F800111247D83C2
:105710006C83055C1F4D20E0F801D490253009F41E
:10572000D12C240158E0D0FC02C03E2D01C03F2DF9
:10573000311109C0EF1007C0D6945150420C531CD0
:105740005111F1CF27C0AC80BD808A2DFC818F1B09
:105750008C1590F73201862D84198C15B8F4F0E879
:10576000AF16B10478F480E46816710458F4432F3E
:10577000B301C5012A8339835B830E94342B5B818B
:1057800039812A819FEF691A790AE5CFEFEFAE1AC6
:10579000BE0ADBCF2F5F8C819D81820D931D9D837F
:1057A0008C830F5F1F4F263009F0B6CF0F900F90FC
:1057B0000F900F900F90DF91CF911F910F91FF905D
:1057C000EF90DF90CF90BF90AF909F908F907F90A1
:1057D0006F905F904F903F902F900895CF92EF92EF
:1057E0000F93CF93DF93EC016A3069F42C8D888D91
:1057F000998D38E0239F800D911D1124998F888FFA
:105800001F8A1E8A2EC06D3061F1262F488D598D5A
:105810006E897F89CC8CEB8C0A8D0E944C2B2C8D51
:10582000422F50E08E899F8936E0239F800D911D85
:1058300011249F8B8E8B2D8D222399F06AEF6403A8
:105840009001659F300D112420583F4F28173907CC
:1058500044F4E881F9810190F081E02D6AE0CE0105
:10586000099581E090E0DF91CF910F91EF90CF907B
:105870000895809171028EBDE2E7F2E081910DB44E
:1058800007FEFDCF8EBD86E0E137F807B9F70DB40E
:1058900007FEFDCF08952F923F924F925F926F9235
:1058A0007F928F929F92AF92BF92CF92DF92EF92B0
:1058B000FF920F931F93CF93DF93CDB7DEB72D9752
:1058C0000FB6F894DEBF0FBECDBFED82E22EF12CF5
:1058D0009C012E0D3F1D37FD32C1803891050CF023
:1058E0002EC19B01200F311D37FD29C16034710588
:1058F0000CF025C1DB0177FF04C0AA27BB27A61B3C
:10590000B70BA770BB279B0177FF02C0295F3F4FF2
:1059100013E0359527951A95E1F777FF08C02150D8
:10592000310968E070E0FB01EA1BFB0BDF01E02FAF
:10593000E695E695E695CE2ED12C077019F0FFEF8F
:10594000CF1ADF0AB9017695762F66277795679586
:10595000680F791F6F587D4F8601020F131F19873B
:105960000887C12CD12CF8E0AF2EB12C85010A1B81
:105970001B0B1F830E83088519852017310709F437
:10598000DEC02830310509F4DAC02F3F1FEF3107A0
:105990000CF4CAC08B0100581F4F1D870C874B01A8
:1059A0003B012B011C011C830B831A8309831B867B
:1059B0001A860A851B850E151F050CF0B5C010E868
:1059C0002116310409F4B0C037FC89C02F3FEFEF36
:1059D0003E0709F4B0C00A851B850C0D1D1DFD8115
:1059E000F13079F4F801E40FF51FE491F0E08F0154
:1059F0000A2E01C0000F0A94EAF7F301B0800B29C8
:105A000025C0FD81F11114C0F801E40FF51FE491E8
:105A1000F0E00A2E02C0EE0FFF1F0A94E2F78F019A
:105A200000951095F401A080B12C0A211B210EC015
:105A3000F801E40FF51FE491F0E08F010A2E01C098
:105A4000000F0A94EAF7F201B0800B25008310974B
:105A500009F445C02730310509F441C00A851B858A
:105A60000C0D1D1DFD81F13089F4F801E40FF51FC7
:105A7000E4910E2F10E00E8002C0159507950A9450
:105A8000E2F7EC85FD85B0800B2928C0FD81F1117E
:105A900015C0F801E40FF51FE4910E2F10E00E8001
:105AA00002C0159507950A94E2F700951095E981D3
:105AB000FA81A080B12C0A211B2110C0F801E40F4B
:105AC000F51FE4910E2F10E00E8002C0159507958A
:105AD0000A94E2F7EB81FC81B0800B2500830A85F4
