:100000000C941A100C9442100C9442100C94421050
:100010000C9442100C9442100C9442100C94421018
:100020000C9442100C9442100C9430250C94A22590
:100030000C9442100C9442100C9442100C944210F8
:100040000C9442100C9442100C9442100C944210E8
:100050000C9442100C9442100C9442100C94CF1843
:100060000C9442100C9442100C9442100C944210C8
:100070000C9442100C9442100C9442100C944210B8
:100080000C9442100C9442100C9442100C944210A8
:100090000C9442100C9442100C9442100C94421098
:1000A0000C9442100C9442100C944210E214EB1485
:1000B000F0140015F014151507152415071537153C
:1000C0000015F014501537151515E21407158F1586
:1000D00007158F1515158F15F21C7C19C21D831974
:1000E0001C1A1F1A211A531AE11BC21D431CB11CF2
:1000F000F61CFC1C7C1D821DEF1FFC1F0820142019
:10010000392058206B2081209A20BA204649474840
:10011000542020444546454E440A204954454D202C
:10012000202052554E002063617374206669726509
:100130002061740A796F7520666F722000207665E1
:100140006E6F6D6F7573206269740A796F752066C2
:100150006F7220002073746172657320646F776E14
:100160000A796F752E41746B20616E642044656658
:1001700020646F776E2E00207065636B73746F72EE
:100180006D65640A20796F7520666F7220002066A5
:100190006F727469666965640A697473656C662E4A
:1001A00000207261792061206C696768740A63615C
:1001B00073742075706F6E20697473656C662E4859
:1001C000502B2B0020737069747320776562202692
:1001D0000A676C75656420796F7520696E20706C94
:1001E0006163652E0020706F77657265642075709D
:1001F0002E0020737570657220736F6E69630A73C9
:10020000637265656368200020737069747320737E
:100210006C696D650A666F7220002D2D3E00446585
:10022000663A002D2D3E0041746B3A002D2D3E00A4
:100230004D617848503A004C6576656C6564207570
:1002400070210020476F6C643A004578703A004591
:100250006E656D7920646566656174656421476FBC
:10026000740A002F0048503A00526576697665643A
:1002700021204C696665207363726F6C6C0A75731C
:10028000656421002F0048503A0020696E20706F8D
:1002900069736F6E2064616D6167652E00596F75BB
:1002A0002073756666657265640A00596F752075FE
:1002B0006E77726170706564206F66660A74686537
:1002C0002077656262696E672E00596F75277265C7
:1002D000207772617070656420696E0A7765622E9E
:1002E000002F0048503A0020696E2064616D6167FC
:1002F000652E002061747461636B656420796F758D
:100300000A666F722000546865206D6F6E737465A5
:100310007220706F6E646572730A20616E6420775C
:100320006F6E6465727320617761792E000A4E6F7B
:10033000772074686177656420616E6420726561FE
:1003400064792E0054686520656E656D7920697347
:100350002066726F7A656E2E00456E48503A000A2C
:10036000706F69736F6E2064616D6167652E0054F4
:10037000686520656E656D7920676F742000206464
:10038000616D6167652E000A666F7220000A6275F2
:1003900074206D69737365642E2000596F75206138
:1003A000747461636B2000426C6F636B6564210041
:1003B000457363617065642100596F7520646566DB
:1003C000656E6420796F757273656C66000A617082
:1003D00070726F61636865732E000000000000009A
:1003E000008080E0F8FC7E7EF34D2D0931092E4E11
:1003F0003EF8E0B05838FC7C3F071311B0F0C94715
:10040000A46365D3AFBDAFD36CC300030706060F6B
:1004100012322A2925676E5E4E4D6D7E7E3F3D3E2F
:100420001F030000C060E0F0F0F0F0F0B0D0F07812
:100430000F294E0C1C4C2C92FFF0F00FF5AB5FFF18
:10044000F7AA57AED7AEFFEDBEF9D6F6B8F450F81E
:10045000FA1F1F0738FFC701FCFF8F010000008F44
:10046000FAFD02010100FFFFC38000E05090681810
:10047000140C0A9E621D5961191DE21C0000000047
:1004800000000C1B14171414364A22A1430505055D
:10049000A251F21E3A243810E00000000080408093
:1004A000404C3286791109117987334C4888488449
:1004B0000300000C1A1E0C00C0F0389C8E560E165D
:1004C0004E9EAC1C3870E090281000C0E071B81E41
:1004D0008710B938787C7C7C7C7C78391005AF7FBC
:1004E000C000030306070E1D1A3C3A747875687540
:1004F00078341A1D0E0D06070303A044E8B31CB898
:1005000076F8F0CCA0104080D8E0F876B81CB3E8BC
:1005100044A000252F1EB56855E2D7BFFF568AFFBD
:10052000BFD7E2506AB51E2F2500101838347474F6
:100530007D6A693BBBFF7E337B696A7974743C38A2
:10054000100000000000008080407886F9F9F986EC
:10055000784080800000000000000030C846414024
:10056000F000300001FF01003000EE312531DE30B7
:100570000000000000314F615080E08780FF8087DD
:10058000E08040FFA1FF00000000C0F09848140484
:100590000202020101010101010202820404289801
:1005A000F0C00F3D746A69D4D0EAB0A9D0D4A0AA33
:1005B000D0B0AAE8D4D1EA773F0F00000000008055
:1005C000700F0062343131346200779414122C2899
:1005D0002810000004C6E7F31B6D956D9DCD36CD48
:1005E00035CDFDFBFBE6C6B07EFF00E0FDFA76866A
:1005F0005EA12BA77FE7EBE11EE6FAFAFDFFFF07FE
:10060000FEF95EBFBF7FBEB16F1617160B2552599C
:10061000BEBF7FBFBF5F01103B1F068D4FA660129C
:10062000CA74A824A424A627A72B72C60000000021
:1006300000000E1929263448494AB58C8D4C8D8C02
:10064000B54C7AFD7E7E828284F8000000C0A0B89E
:10065000ACCA33140C040C14F3AAA4BBCC303F0F67
:10066000030000000010381ADDF5FFCAB24534C996
:1006700048A054A854AA5428040000E010D0E8FF71
:100680001F1F373F3B7DFFFEFDF6EDF6255244A8C8
:1006900090A00001024320410140004000004001C1
:1006A0000101437F46340800000000000000804044
:1006B000A0D0D0F0E0C000000000001C225D7EEF62
:1006C000CDEDCFEDCDEF7F7E3C00E018A60DF01F05
:1006D000263232261FF8059306F8010E151027184A
:1006E000622424623847241906010000000080407B
:1006F00078447A448000000000000004064D522A2D
:100700005484542A524D06040000000000008083E7
:1007100004F0FCD6C6D6FEFEFCF340200C32723E3E
:1007200072320DC30737070303043C4281092102DB
:1007300084B9F0BB84022109817E012210954E55B7
:100740002A35FF352A554E951022E01028448E7127
:10075000D5514E51D5718E4428F03DE3BE9D84C4E1
:10076000292E282E29C4849DA6C100026098744AAF
:10077000C7AD5DB30C00040A040002002854296DC3
:1007800028D020100F044A1B0A152050DA471B03FB
:10079000255840404020102010E000070A14E8B01F
:1007A000A4B4E4B2E030281409060000001010E000
:1007B000231D021CD0201000000000000884443ECD
:1007C0002721150B070408080000E01004804221CF
:1007D00011B1D1A142800410E0001F0CF023254A82
:1007E000D75BD74AA523F01C3F00F8FCFEE6C353B5
:1007F000474F4F4753C3F6FEFCF840A1D397CE8F27
:100800007C0F0F7C8FCE97D3A1400000C0247C4882
:100810006C5A725A6C487C24C0000000314A4A4C21
:10082000351D1D1D354C4A4A310045483A002F0000
:1008300048503A000A02070104050F0209010607A1
:10084000140306020C0A1E0408000A0A28031200F8
:100850000F0F3203120F1E192D050F0A1428320331
:10086000140C202046091E0A283250081E141E2887
:10087000780A1E1E4264960C2322584630030E0747
:1008800023323C020F072D28780314103C46A004A5
:10089000190A646496041E09967D78090F1E9696BF
:1008A000C8052D23C8C8FA094619E1E1FF095032ED
:1008B000FAFAFA0F6441FFFF4461726B426C6F6297
:1008C0004772617920426174576869746552617436
:1008D000446F6F6D384C6567416E677279466C790D
:1008E000546F72746F697365576565644C696F6E98
:1008F000436869636B656E3F57686974654C697AD4
:1009000049706F6442616C6C4D7570706574202025
:100910004E6F74476F6D6261536E616B6579202015
:1009200047726179576F6C66536B656C65746F6E57
:10093000426967536C696D654D616E45617465729E
:100940004D6167696369616E54657272614F616B75
:100950004261644472616B6F4461726B4E6974658D
:100960004E6974654D6172650C0D0E0F10111213F6
:100970001414131215D5F08D14A1C881CFD9F1AF7D
:100980002000476F6C643A00020008000A0019005A
:10099000280050007800A000D20004014A017C0128
:1009A000B801F4012B028002BC0209035C03C003FE
:1009B0001004B004DC0508075C08FC08C409800CBE
:1009C000AC0D3C0FCC102413E0159C18581B841C54
:1009D000B01D401F34218C2380250429E02EB03621
:1009E000803E384AF05590653075B88828A0B0B37D
:1009F00020CBC0DA60EA48EE30F218F60CF800FAC4
:100A00002F004578703A0041726D6F723A00576559
:100A100061706F6E3A002041433A00446566656E2E
:100A200073653A00202D20002057503A004174741D
:100A300061636B3A002F0048503A0020446570749F
:100A4000683A004C6576656C3A005374617475734E
:100A500000436865636B204261670A2053746174C8
:100A6000757300F028444482828282820105050564
:100A700005050D051D0D3D1D7939BABA9AB292547E
:100A80004428F00718608E0078F0FEFEFDFDFD7D25
:100A9000BDD9EDA15DA179E1F101000000040E04D2
:100AA0008078078080C0F1C2848913272F2FDF1E32
:100AB0001D1A15004840CE412320201010080402C2
:100AC000010000000001070180C080002255BBF733
:100AD000EE66EE66AA77225522000008081C7F1CED
:100AE00008080000000000008041209048A4D2E0E7
:100AF000F83E4E2000000042E448102040800000F4
:100B0000000000000000000304081E1D3E3F3F2FB0
:100B1000312E312030202020202010100804030026
:100B2000000000F8FE070323E7E60080F0FCC7FCA6
:100B3000F08000FFFE04F804FEFF00FFFF232323E4
:100B4000230300C3E7773677E7C30077F781008197
:100B5000F77700F7F7303030373700F7F7363636AB
:100B600066C6001F3F7060703F1F0000073F783F60
:100B70000700007F7F6262626260007F7F06060E70
:100B80007B71000000000080548A578A178A55CA7A
:100B900044C0448A540A458A118A45A8400000008E
:100BA0000000000000A0142A4528552C5488552820
:100BB0005520012855A8552C5CAC550C550A5420DD
:100BC00000000080F1FA79DCF58E76D84C7CEC3AA6
:100BD000865ED49E1E2E4E2E5E6E16B840D455D420
:100BE000D5D4E80D377DFFE79B77D796F9750CF3E1
:100BF00068D1A8ABA9D8F4E9E9C1566E7F3F3F3D63
:100C0000170D0700003C424242423C101070101089
:100C1000107000003C42BDA5A5BD422C6888682824
:100C200068887841220C1211317B2F2F7B311112F1
:100C30000C2241000C122D2A4A845050844A2A2D3D
:100C4000120C0000E000001068D4F4D4689000009A
:100C500080000000020200010316161603000001C6
:100C6000030100E010E0F0E8942A0A2A9468F0C03A
:100C700040C0C003050503427C6929697C43030623
:100C80000C0601309234B28692A696309234B28627
:100C900092A6960C040D0C010409050C040D0C0120
:100CA00004090570567601FEE642020242E6FE01A4
:100CB00076567000070704030202020202020304D0
:100CC000070700DFFFDFFFDFFFDF8ADFFFDFFFDF78
:100CD000FFDF8A070F070F070F0702070F070F072E
:100CE0000F0702EFC341DFEF7F1F0FFF7FEFC3410D
:100CF000DFEFFF0B0000070B0F0E0E0E0F0B0000B7
:100D0000070B0FFFFFFF7FBF5F2F2F0F1F3F7FFFDF
:100D1000FFFF550F0F0F0C090808080808080C0FF3
:100D20000F0F0DFFF1C18F122C0901092C12CFC139
:100D3000F1FF5F0F0F0301080C0C0C0C0C080103F2
:100D40000F0F0DFF01DDD9DDD99D699DD9DDD9D505
:100D500001FF550F000607060607070706070607E7
:100D6000000F0DFF21D6DAC0DEC8580048D4C8C035
:100D7000DEC6210F000D0C0D0C09040404090C0D36
:100D80000C0D00E1D25E5240DEC8449E40DEC8C475
:100D90005EC0E10300010101080F0F0E0F090308F7
:100DA00008080BFFF3F3F9F9F8FC9C8CCCC8C9C90F
:100DB000C1E3770F070F070F070D0008050F070F97
:100DC000070F0507F99EFE00BE7EFD7BF7EFDFDF14
:100DD000BF7FD50E0D0B0809080908090A090A0981
:100DE0000B090C1FEF778FDFDFBF9F0F97CFDFDF80
:100DF000EFEF1F0807030403070B090A0B0703079C
:100E0000030608FF7FBF5F5FBF7F7F7F7F7F7F7F9E
:100E10007FFF550F0E0D0A0A0D0D0D090B09090B69
:100E2000080F0DFF1FAF77F77BFB7BFBFBFB95EDFF
:100E30001D8BC70F0C080502010305030503050BF5
:100E40000C0F0F1FEF6D8E68668440408466688EBD
:100E5000DDCFCF0E0D0E0703000C0E0E0C000307A6
:100E60000F0F0FFF0175F1F501D5C9D501552955B2
:100E70000101FF0F08090A0B08090A0B08090B0BEF
:100E800008080F3E456173790A204861726400804A
:100E900000023E02003E0830001834280000000224
:100EA000FEFEFE0202020EFCF000C0E0202022E462
:100EB000C80820E8E82420E0C2002022FEFE22200C
:100EC0000002FEFE626060E4C80810304C82002020
:100ED0001A00803048747F7C7830000000000008E1
:100EE0000F0F0F0808080E070100070F09098909ED
:100EF000040080FFFF88080F07A05020174F88A02C
:100F000014280FAF884008AF0F08000080611E0052
:100F100080FE03070830C00000FC030060000010E2
:100F2000B070AC7A6C400000040A0400020F0200AA
:100F30000000000000000028552A05000810313389
:100F400073707333311008000528008F000102FC14
:100F50002F01000000007FFC0601C0380600007869
:100F60008778070000385494949C00007C02023A71
:100F7000448202047800704A4A7C4000017E0402E8
:100F8000020202789C929191914E000081423E7F34
:100F90004375437F4175CBFFC1DD63FF415FC1FFF7
:100FA00041D56B7F635D637FF947797F0000000067
:100FB000000000E0FCFFFFFFEF8102000000FFFAED
:100FC000F8F8F8F0E10004A0008B9CE000000000BD
:100FD000000000073FFFFFFFFFFCFAF4E8D0C0A0CD
:100FE0008181A1A14141A1D1A1D139070000000017
:100FF00000000000000003070F1F7F836F57BB7FB7
:101000007F8B7F1F7F8FBF4FB3887000748A740AF5
:1010100048503A004469646E277420666972652EF0
:10102000005261696E696E6720676F6C6420636F40
:10103000696E732E0A4F55434821202B31302067AB
:101040006F6C642C202D3130485000506F69736FE5
:101050006E20676173212121004865616C696E67AC
:101060002054726170202B3548502E005069742036
:1010700054726170202D313048502E00476173202A
:1010800054726170202D3248502E005370696B6588
:101090002054726170202D3548502E0054726170BA
:1010A0002121210A00676F6C642100436865737415
:1010B000210A004E6F7420656E6F75676820676F38
:1010C0006C642E005472616465642061726D6F728D
:1010D0002E004E6F7420656E6F75676820676F6CA9
:1010E000642E0054726164656420776561706F6E70
:1010F0002E0020000A200020000A2B413A000000A8
:101100001400370064008200C8006801C201EE02CA
:101110000104D007EA0B88134C1D1027D430FFFFC1
:101120000A2B573A0000000A00280050007D00C832
:10113000005401F4018A02E803DC05C409A00F7C15
:1011400015401FE02EFFFF57656C636F6D652074BF
:101150006F206D790A626C61636B736D6974682EC0
:101160005768617420646F0A796F752077697368B6
:1011700020746F206275793F0A474F4C443A004112
:101180006C6C207265737465642075702E005A7AD9
:101190007A2E2E2000596F7520646F206E6F742098
:1011A000686176650A20656E6F75676820676F6C89
:1011B000642E0057656C636F6D6520746F206D79C8
:1011C00020686F74656C210A596F752063616E2009
:1011D0007374617920616E6420726573740A666F3E
:1011E0007220353020676F6C642C20737461793FF6
:1011F0000042756E6368206F66206D6963652074B8
:101200006F6F6B0A746865206D656174206177612A
:10121000792E0042757420697427732066756C6C92
:101220002100596F752070757420697420696E20D3
:10123000796F75720A206261672E0059756D2121E0
:10124000202B35306870004D656174210A446F2091
:10125000796F75206561742069743F00596F7572EC
:10126000206261672069732066756C6C20616E6412
:101270000A20746865207363726F6C6C20637275EA
:101280006D626C65732E00596F75206C65617665B3
:1012900020746865207363726F6C6C00596F7527DA
:1012A000766520666F756E642061207363726F6C63
:1012B0006C210A446F20796F752077616E742074F9
:1012C0006F2074616B650A2069743F00596F752047
:1012D0006C65617665207468652062616700596F8E
:1012E0007572206261672069732066756C6C20617D
:1012F0006E640A207468652062616720696D706C95
:101300006F6465732E00323520676F6C64207069DE
:1013100065636500486572622E0042726561642EE5
:10132000004D6561742E00506F74696F6E2E005908
:101330006F7527766520666F756E64206120626127
:1013400067210A446F20796F752077616E7420746D
:101350006F206F70656E0A2069743F000000000006
:1013600004B062A002001020022220200D22404082
:10137000002000200A24C020000000200222222099
:101380000200002002340230020B02200206040098
:10139000020002600222A00000022420000400E0FB
:1013A000072280F0009020000000000008000000EC
:1013B000025160F00400B0E002700020020224201C
:1013C00002220000020D06D002000AB002021C90A8
:1013D0000204000002022490040220000202259070
:1013E0000300200002222390042000000920D29054
:1013F000002422200A3042B000000000000000005B
:101400000B42560890020B024A020002222222429C
:10141000222222022004000240D22207202222009F
:10142000202222062022290220100003402222220C
:101430002000002220D6B1222000002422222020D9
:10144000304050E09090C0F000000000000000002C
:101450000A22422D02200020000090200009422094
:10146000C2000020020B0020025D604002066020E6
:101470000200002022220020400200402802022018
:101480007002222400042222B42200100200001064
:1014900004061320C20D00E9000B0F996027025CBF
:1014A000B0900400502202222009000920220022CC
:1014B000409061202022009020020D222322A003D0
:1014C000000220022292242B9000200024202222BD
:1014D00000900004822060020000612202220020AD
:1014E0000E050D220F02000400022422C0B6600087
:1014F00020D6612F400000E0202420102220801000
:10150000400000102209D3200209322002002220CC
:101510000224222200000002D24C07020400020230
:101520000222220203000402690902220009522257
:101530000B0902220C00090D02252200C422000022
:101540004222024622220224922D1222000002226E
:1015500097220222922242249222022A98220040BA
:101560000000022202EF022202000A220400000907
:101570000206A602020B66120406D602020000044E
:1015800002022222025292926202222200022000D1
:1015900024222229200200202004004020D20222FE
:1015A00020020302590206026B0206040002000236
:1015B00022224022402080202020004070206120F4
:1015C000004060290220B0200200D05022200020DC
:1015D00030222020904050E0909090F000000000D9
:1015E0008240474C2421242542202222B0902922E7
:1015F000001010920022200D0C222C00022222EF5B
:101600000D22240000222000001010000090222053
:101610000420222002209220D43092504220001038
:10162000999006660990C66B000000000000660FE6
:101630000111010E04011122222000002020C252BB
:101640004090200222202B09040030020C22222C80
:1016500000000002000002220827020200400400ED
:101660000C22029C0002020009040222032220B282
:10167000005020040C2020220000222207292EF0F6
:1016800000101100089C016602240666029206669C
:1016900000100000049202520C42142C0422022278
:1016A000001000100C4909240C49024C0422124C71
:1016B00002220224001000100A22025202221222E8
:1016C00002240229024C029C0000000000022F228A
:1016D000022222220200000002000200020020205A
:1016E00002020E020200050002D004000200010006
:1016F0000209999902299999020001000200060045
:1017000002000600020206020200202002A00200DF
:10171000020000000222222200022F22000000000C
:1017200000222000002F20000022200000222000A4
:10173000000200000B0E0D00022222000202020035
:101740000222220002020200022222000002000005
:1017500000020000082227000202020002222200EA
:101760000202020002222200000000005965730AF2
:10177000204E6F005573650A2044726F70004F6EE3
:101780006C79207573656420647572696E670A628E
:101790006174746C652E00596F7520706F69736F7A
:1017A0006E656420796F75720A656E656D792100CA
:1017B000596F752067726561746C7920696E637208
:1017C000656173650A796F75722061746B20616E53
:1017D00064206465662100596F7572204850206945
:1017E00073206D61786564206F75742E0A00596FDF
:1017F0007520667265657A6520796F757220666FEF
:1018000065210A00466F6527732061726D6F722033
:101810006D656C7465640A20617761792100596F88
:1018200075206275726E20796F757220666F652102
:101830000A005265636F7665726564203135204811
:10184000502E0A48503A005265636F76657265649F
:101850002033302048502E0A48503A005265636FBA
:1018600076657265642035302048502E0A48503A1B
:10187000005265636F7665726564203130302048B0
:10188000502E0A48503A000A200020002D2D2D200D
:101890002020506F74696F6E4D6561742020427214
:1018A00065616420486572622020466972655363F1
:1018B0004163696453634963652053634C6966659A
:1018C0005363506F77205363546F786953633E00BE
:1018D000080B0002020201000904000001020200DC
:1018E000000524001001052401010104240206055D
:1018F00024060001070581031000400904010002CD
:101900000A000000070502024000000705830240AC
:1019100000000403090412010002EF020140412308
:10192000368000010102030141726475696E6F2007
:101930004C4C430041726475696E6F204C656F6E4C
:101940006172646F00021108020908010008131097
:101950000A10010504010405020403070201030043
:101960000102030406080A0C0E10121417191E6354
:10197000426972746864617953756974436F7474F1
:101980006F6E205368697274576F6F6C205375695E
:10199000742020204C65617468657241726D6F72AD
:1019A000576F6F64656E204D61696C204368616993
:1019B0006E204D61696C2020436F7070657220410C
:1019C000726D6F7249726F6E204D61696C202020BC
:1019D00042726F6E7A652041726D6F7253746565E5
:1019E0006C20506C6174652046756C6C20506C6185
:1019F0007465202053696C7665722041726D6F7238
:101A0000476F6C6420506C6174652020447261677C
:101A10006F6E2041726D6F72456D6572616C6441CD
:101A2000726D6F724469616D6F6E6441726D6F7239
:101A30004F7574206F662053746F636B050406093D
:101A40000C0D0F12181923282C2E323C63000102B2
:101A500004060807090C0B0E101418151C634669C0
:101A600073742061204375666620576F6F64656EDE
:101A700020537469636B4F616B20436C7562202047
:101A8000202042756C6C2057686970202020436FBD
:101A9000707065722053776F7264436861696E205D
:101AA00057686970202049726F6E204D6163652010
:101AB000202042726F61642053776F7264205374E8
:101AC00065656C20467261696C20476C616469755C
:101AD00073202020202054726964656E74202020B9
:101AE00020204D6F726E696E67205374617253745B
:101AF00065656C2041786520202053696C7665729D
:101B000020426C616465466C616D65205768697040
:101B10002020457863616C696275722020204F75C2
:101B200074206F662053746F636B00000000003EEA
:101B30005B4F5B3E3E6B4F6B3E1C3E7C3E1C183C3D
:101B40007E3C181C577D571C1C5E7F5E1C00183C99
:101B50001800FFE7C3E7FF0018241800FFE7DBE7E2
:101B6000FF30483A060E2629792926407F050507C9
:101B7000407F05253F5A3CE73C5A7F3E1C1C080825
:101B80001C1C3E7F14227F22145F5F005F5F0609EA
:101B90007F017F006689956A606060606094A2FF43
:101BA000A29408047E040810207E201008082A1C35
:101BB00008081C2A08081E101010100C1E0C1E0C01
:101BC00030383E3830060E3E0E06000000000000A1
:101BD000005F00000007000700147F147F14242A10
:101BE0007F2A1223130864623649562050000807E2
:101BF0000300001C2241000041221C002A1C7F1C03
:101C00002A08083E08080080703000080808080804
:101C1000000060600020100804023E5149453E006B
:101C2000427F400072494949462141494D331814C9
:101C3000127F1027454545393C4A49493141211118
:101C400009073649494936464949291E000014000A
:101C5000000040340000000814224114141414142D
:101C6000004122140802015909063E415D594E7C8B
:101C70001211127C7F494949363E414141227F4140
:101C800041413E7F494949417F090909013E41419E
:101C900051737F0808087F00417F41002040413F89
:101CA000017F081422417F404040407F021C027F98
:101CB0007F0408107F3E4141413E7F090909063EED
:101CC0004151215E7F0919294626494949320301BC
:101CD0007F01033F4040403F1F2040201F3F4038CE
:101CE000403F631408146303047804036159494DA9
:101CF00043007F4141410204081020004141417FDF
:101D00000402010204404040404000030708002054
:101D1000545478407F284444383844444428384454
:101D200044287F385454541800087E090218A4A48B
:101D30009C787F0804047800447D40002040403DAA
:101D4000007F1028440000417F40007C0478047824
:101D50007C080404783844444438FC1824241818B7
:101D6000242418FC7C080404084854545424040413
:101D70003F44243C4040207C1C2040201C3C403000
:101D8000403C44281028444C9090907C4464544C2F
:101D9000440008364100000077000000413608008A
:101DA00002010204023C2623263C1EA1A161123A34
:101DB0004040207A38545455592155557941215481
:101DC000547841215554784020545579400C1E5286
:101DD000721239555555593954545459395554542A
:101DE000580000457C410002457D420001457C4091
:101DF000F0292429F0F0282528F07C5455450020AE
:101E000054547C547C0A097F49324949493232484A
:101E1000484832324A4848303A4141217A3A4240B1
:101E20002078009DA0A07D39444444393D40404085
:101E30003D3C24FF2424487E4943662B2FFC2F2B56
:101E4000FF0929F620C0887E0903205454794100F7
:101E500000447D413048484A32384040227A007A76
:101E60000A0A727D0D19317D2629292F2826292954
:101E7000292630484D402038080808080808080876
:101E8000382F10C8ACBA2F102834FA00007B00009D
:101E900008142A142222142A14089500220095AA54
:101EA000005500AAAA55AA55AA000000FF0010106C
:101EB00010FF00141414FF001010FF00FF1010F0AA
:101EC00010F0141414FC001414F700FF0000FF00BD
:101ED000FF1414F404FC141417101F10101F101F0B
:101EE0001414141F00101010F0000000001F101038
:101EF00010101F10101010F010000000FF10101034
:101F0000101010101010FF10000000FF140000FF50
:101F100000FF00001F10170000FC04F41414171039
:101F2000171414F404F40000FF00F714141414142C
:101F30001414F700F7141414171410101F101F14A2
:101F40001414F4141010F010F000001F101F000003
:101F5000001F14000000FC140000F010F01010FF2F
:101F600010FF141414FF141010101F00000000F0D4
:101F700010FFFFFFFFFFF0F0F0F0F0FFFFFF0000A9
:101F8000000000FFFF0F0F0F0F0F38444438447C50
:101F90002A2A3E147E02020606027E027E02635553
:101FA0004941633844443C04407E201E2006027EA2
:101FB000020299A5E7A5991C2A492A1C4C720172B4
:101FC0004C304A4D4D303048784830BC625A463D1E
:101FD0003E494949007E0101017E2A2A2A2A2A44D3
:101FE000445F444440514A444040444A5140000008
:101FF000FF0103E080FF000008086B6B0836123613
:102000002436060F090F06000018180000001010F3
:10201000003040FF0101001F01011E00191D1712B1
:10202000003C3C3C3C000000000001020408102081
:102030004080642F11241FBECFEFDAE0DEBFCDBF9A
:1020400011E0A0E0B1E0E6EDF3E602C005900D92EC
:10205000A634B107D9F726E0A6E4B1E001C01D928D
:10206000A93FB207E1F710E1CAE1D0E104C021972E
:10207000FE010E94DE31C931D107C9F70E94E42A6E
:102080000C94E9310C9400005F926F927F928F92D2
:102090009F92AF92BF92CF92DF92EF92FF920F93F7
:1020A0001F93CF93DF9381E08093520110925101EF
:1020B0001092500110924F0110924E0110924D015A
:1020C0000E94D72380914402811114C08091340270
:1020D00063E00E94D23180918701980F9093630151
:1020E0009C3040F06BE070E080E090E00E944F1880
:1020F00060936301809144028130D9F4209187017B
:1021000030E040E050E060E070E0CB010E947318E6
:1021100060934302693040F068E070E080E090E056
:102120000E944F186093430280914302845F809322
:10213000630180914402823041F4E091F006F0E0C6
:10214000E859F64FE491E09363014091630128E080
:10215000429FB001112480E0282F30E0F901E60F02
:10216000F71FE854F74FE491D901A55ABE4FEC93FD
:102170008F5F883089F78093380256E0459FC00111
:102180001124FC01EC5CF74FE491F0E0453121F4BF
:10219000EE0FFF1FEE0FFF1FF0934C01E0934B017A
:1021A000FC01EB5CF74FE491E0935A01FC01EA5C1F
:1021B000F74FE491E0935901FC01E95CF74FE4919A
:1021C000E0934A01FC01E85CF74FE491F0E0F09302
:1021D0005801E0935701FC01E75CF74FE491F0E010
:1021E000F0934002E0933F02109287061092860619
:1021F000109289061092880680E398E00E942023BE
:102200008091890190918A010E94A1238EE298E039
:102210000E94202380918501909186010E94A12334
:10222000109287061092860688E090E090938906C7
:10223000809388068AE298E00E94202380914B01D7
:1022400090914C010E94A12301E020E240E260E174
:1022500070E080E390E00E947823E1EAF3E09EE101
:102260009E0F9E1721F080818D7F8193FACFE1E24E
:10227000F5E09EE19E0F9E1721F080818F7B819378
:10228000FACF20E04EE161E170E081E390E00E944E
:10229000412320E04EE161E170E08EE490E00E9495
:1022A000412380914402811111C04091630180E279
:1022B000489FA00111244655594FE12C00E120E12F
:1022C00068E170E088E390E00E94F6288091440283
:1022D0008823A9F08091630190E00C9728E4289F5F
:1022E000A001299F500D112446525C4FE12C08E1BA
:1022F00028E164E170E084E390E00E94F628109207
:1023000087061092860680E390E09093890680937A
:10231000880610923802E0913802E83071F0F0E05F
:10232000E55AFE4F608180E796E00E9499288091EF
:1023300038028F5F80933802EECF8DEC93E00E94DD
:1023400020230E94D41D68E0A62EB12C10E37AE26F
:10235000F72EE7E3DE2EF3E07F2E88248394912C82
:10236000B2E06B2E00E020E240E860E370E080E045
:1023700090E00E947823B0928706A092860680E3C0
:1023800090E090938906809388068CE091E00E940B
:102390002023109241021093360210924901CC245E
:1023A000C394E12C01E02EE340E350E060E070E0F4
:1023B00080E796E00E94F72760EC70E080E090E014
:1023C0000E949518552453948091410281118FC029
:1023D00061E070E080E090E00E9495188091340206
:1023E0008F5F809334020E941E1983FD5092410238
:1023F0000E941E1987FF1AC0C0914901D0E0409188
:10240000360250E0CC24C394E12C01E020E2BE016E
:1024100080E796E00E94F727109336022EE340E310
:1024200050E0BE0180E796E00E94F7270E941E1947
:1024300085FF1BC04091360250E06091490170E079
:10244000CC24C394E12C01E020E280E796E00E94D6
:10245000F727109249014091360250E02EE360E0E8
:1024600070E080E796E00E94F7270E941E1984FF23
:102470001AC0C0914901D0E04091360250E0CC240E
:10248000C394E12C01E020E2BE0180E796E00E94C7
:10249000F727D09236022EE347E350E0BE0180E7F3
:1024A00096E00E94F7270E941E1986FF1BC04091EC
:1024B000360250E06091490170E0CC24C394E12CD5
:1024C00001E020E280E796E00E94F727F0924901C0
:1024D0004091360250E02EE36AE270E080E796E039
:1024E0000E94F72784E796E00E94E4286DCF00E081
:1024F00020E240E860E370E080E090E00E94782312
:1025000080914901811105C0809136028033A9F480
:102510004DC08A3209F026CF809136028033D1F443
:10252000109287061092860680E390E090938906C9
:102530008093880689EB93E033C0873309F012CF8C
:102540000E94771E80914102823071F1833009F040
:1025500009CFACC0873309F005CF109287061092DF
:10256000860680E390E090938906809388068091A8
:102570003402837080933802813081F48091440268
:10258000823061F001E02EE14EE161E170E081E333
:1025900090E00E94782380EB93E0A7C187EA93E064
:1025A0000E9420230E94D41DC1E054C110928706CE
:1025B0001092860680E390E09093890680938806C7
:1025C0008BE993E00E94202310923802E0913802B8
:1025D000E83071F0F0E0E55AFE4F608180E796E068
:1025E0000E949928809138028F5F80933802EECF45
:1025F00080916301843069F463E070E080E090E0F2
:102600000E944F1860934302613019F48DE893E003
:10261000C7CF87E893E00E9420236091840170E097
:1026200080914F019091500120918301EB01C20FE5
:10263000D11DC80FD91FD7FD2196D595C795D09329
:102640005601C093550120918201620F711D680FE0
:10265000791F072E000C880B990B0E94D93020E0BF
:1026600030E040EA5FE30E943D310E94A130709368
:102670005401609353019B01770F440B550BBE012E
:10268000DD0F880B990B0E94731820914A0130E0EE
:10269000621B730B161617062CF470934801609397
:1026A000470104C090924801809247018091470100
:1026B000909148010E94A1238EE793E00E9420237D
:1026C00080914B0190914C0120914701309148013C
:1026D000EC01C21BD30BD0934C01C0934B018091F2
:1026E0005101823089F50E94D41D00E020E240E8CB
:1026F00060E370E080E090E00E947823CE01D7FD97
:10270000079643E0959587954A95E1F790934801A0
:1027100080934701109287061092860680E390E02E
:1027200090938906809388068FE693E00E94202389
:1027300080914701909148010E94A1238FE593E089
:102740000E9420230E94D41D80914B0190914C0146
:1027500097FF04C010924C0110924B0100E028E05A
:1027600040E868E070E080E090E00E9478231092FA
:10277000870610928606B0928906A092880689E59F
:1027800093E00E94202380914B0190914C010E9484
:10279000A1230E94D41D80914B0190914C01892B63
:1027A00009F002CF03C380913402672D0E94D23119
:1027B000909343029111C4C080915A01882309F477
:1027C000BFC0815080935A0110924102E091630191
:1027D0008E2F90E08631910508F4EFC08091410280
:1027E000882309F4B0C1813009F0AAC00E94D41D29
:1027F00080919001813009F00BC200E020E240E8B6
:1028000060E370E080E090E00E94782310928706F9
:102810001092860680E390E0909389068093880664
:1028200062E070E080E090E00E944F186093430205
:10283000611104C08AEC92E00E942023809143023F
:10284000813031F48BEA92E00E94202310929001B3
:102850000E94D41D80915101813031F500E020E2C9
:1028600040E860E370E080E090E00E9478231092FE
:1028700087061092860680E390E090938906809305
:10288000880684E493E00E942023809134028170C2
:1028900080934302813009F086C28DE293E00E946A
:1028A0002023109251017FC2809149018A3201F5A3
:1028B000809136028033E1F480916301811118C068
:1028C00000E020E240E860E370E080E090E00E94F9
:1028D0007823109287061092860680E390E090930A
:1028E00089068093880686E093E00E9420236BC3CC
:1028F00000E020E240E860E370E080E090E00E94C9
:102900007823109287061092860680E390E09093D9
:1029100089068093880610923802E0913802E830E8
:1029200009F441CFF0E0E55AFE4F608180E796E080
:102930000E949928809138028F5F80933802EDCFF2
:1029400083EF92E00E94202360915901D62FD69503
:102950008D2F90E0909356018093550170E080E0B8
:1029600090E00E94D93020E030E040EA5FE30E942E
:102970003D310E94A13070935401609353019B013B
:10298000770F440B550B6D2F70E080E090E00E94B4
:1029900073182091810130E0621B730B80918001DC
:1029A000681B710980914D0190914E01681B790B54
:1029B0007093480160934701C6C0FC01EA5AFF4F7B
:1029C0000C94DE3188E092E00E942023809159012E
:1029D00090E0089643C082EF91E00E942023FECE53
:1029E00085EE91E00E94202380915901982F990F44
:1029F0009E5F869586958695890F809359014DC077
:102A000084EC91E00E942023C093900146C081EAAB
:102A100091E00E94202380914B0190914C014496BB
:102A200090934C0180934B0138C08EE891E00E9456
:102A3000202380914A0192E0980F8695869586958D
:102A4000890F80934A0129C087E791E00E942023E3
:102A50008091590123E0829FC001112420918101BE
:102A6000821B910920918001821B910967C084E536
:102A700091E00E94202380914D0190914E010A9790
:102A800090934E0180934D0180914F0190915001A0
:102A90000A979093500180934F01C09341029ECEBC
:102AA0008DE391E00E94202360915901D62FD695A5
:102AB0008D2F90E0909356018093550170E080E057
:102AC00090E00E94D93020E030E040EA5FE30E94CD
:102AD0003D310E94A13070935401609353019B01DA
:102AE000770F440B550B6D2F70E080E090E00E9453
:102AF00073182091810130E0621B730B809180017B
:102B0000681B710980914D0190914E01681B790BF2
:102B10007093480160934701609290015FCE86E216
:102B200091E00E9420236EE170E080E090E00E943E
:102B30004F18DC01CB014496A11DB11D90934801B3
:102B4000809347014BCE809149018A3291F4809164
:102B50003602803371F4809147019091480197FDCE
:102B600003969595879595958795909348018093C1
:102B70004701809147019091480197FF04C09092CE
:102B800048018092470180914701909148010E943D
:102B9000A1238091890190918A0120914701309170
:102BA0004801821B930B97FD05C090938A01809387
:102BB000890104C010928A011092890187EE92E087
:102BC0000E94202300E028E040E860E070E080E020
:102BD00090E00E9478231092870610928606109249
:102BE00089061092880683EE92E00E94202380914D
:102BF000890190918A010E94A12381EE92E00E94B6
:102C0000202380918501909186010E94A123EECD21
:102C1000823009F069C000E020E240E860E370E043
:102C200080E090E00E94782310928706109286063A
:102C300080E390E0909389068093880680918501D7
:102C40009091860197FD0F9624E0959587952A959A
:102C5000E1F79093480180934701209189013091D9
:102C60008A01A901481B590B57FD05C050938A01E1
:102C70004093890104C010928A01109289018DE964
:102C800092E00E94202380914701909148010E9488
:102C9000A1238AE892E00E94202300E028E040E897
:102CA00060E070E080E090E00E9478231092870658
:102CB00010928606109289061092880686E892E0A5
:102CC0000E9420238091890190918A010E94A12372
:102CD00084E892E00E9420238091850190918601F2
:102CE0000E94A1230E94D41D8091890190918A01A4
:102CF000181619060CF436CB80E001C0892F8630F7
:102D000009F475C1E82FF0E091E0980FEF50F94F0A
:102D10002081283099F780934601108280918501A7
:102D20009091860190938A018093890100E020E2CE
:102D300040E860E370E080E090E00E947823109229
:102D400087061092860680E390E090938906809330
:102D500088061092900189E692E00E94202328E0E4
:102D600040E860E070E080E090E00E9478231092FC
:102D7000870610928606109289061092880685E6CC
:102D800092E00E9420238091890190918A010E9403
:102D9000A12383E692E00E942023809185019091F7
:102DA00086010E94A1230E94D41DDCCA01E020E21A
:102DB00040E260E170E080E390E00E94782300E070
:102DC00020E240E860E370E080E090E00E94782339
:102DD000109287061092860680E390E09093890611
:102DE000809388068FE492E00E9420238AE492E098
:102DF0000E94202380915701909158010E94A123A5
:102E000083E492E00E94202380913F02909140024F
:102E10000E94EA2320916601309167018091570159
:102E200090915801820F931F9093670180936601E0
:102E3000209164013091650180913F0290914002A0
:102E4000820F931F90936501809364010E94D41DAB
:102E5000E0918801F0E0EE0FFF1FE857F64F8591F3
:102E6000949120916601309167012817390708F481
:102E7000ACC00E94D723109287061092860610924B
:102E800089061092880687E392E00E942023109220
:102E900087061092860688E090E0909389068093DA
:102EA000880680E392E00E94202380918501909122
:102EB00086010E94A1238CE292E00E94202368E018
:102EC00070E080E090E00E944F1880908501909023
:102ED0008601092C000CAA08BB08DC01CB01049672
:102EE000A11DB11D880D991DAA1DBB1D90938601C2
:102EF000809385010E94A123809185019091860194
:102F000090938A0180938901109287061092860619
:102F100080E190E0909389068093880687E292E0B2
:102F20000E942023809184010E949A2383E292E0F0
:102F30000E94202363E070E080E090E00E944F1840
:102F400020918401DC01CB010196A11DB11D820FEE
:102F5000911DA11DB11D809384010E949A2310929E
:102F600087061092860688E190E090938906809308
:102F700088068EE192E00E942023809181010E94C8
:102F80009A238AE192E00E94202361E070E080E0D1
:102F900090E00E944F1820918101DC01CB01019645
:102FA000A11DB11D820F911DA11DB11D8093810135
:102FB0000E949A23809188018F5F809388011092EC
:102FC0006701109266010E94D41D10925201DF9198
:102FD000CF911F910F91FF90EF90DF90CF90BF9016
:102FE000AF909F908F907F906F905F9008958093A7
:102FF000460183E080933702E8CFCF92DF92EF92D1
:10300000FF920F931F93CF93DF936C017A018B0193
:10301000C0E0D0E0CE15DF0589F0D8016D918D01BB
:10302000D601ED91FC910190F081E02DC60109954A
:10303000892B11F47E0102C02196ECCFC701DF91EC
:10304000CF911F910F91FF90EF90DF90CF90089557
:103050003FB7F89480913A0290913B02A0913C02D4
:10306000B0913D0226B5A89B05C02F3F19F00196EF
:10307000A11DB11D3FBFBA2FA92F982F8827820FFE
:10308000911DA11DB11DBC01CD0142E0660F771F4E
:10309000881F991F4A95D1F708950E94E431CF9374
:1030A000DF9300D000D0CDB7DEB761157105810583
:1030B000910579F09B01AC0169833A834B835C8372
:1030C0000E94283029813A814B815C810E943E30E8
:1030D00003C060E070E0CB010F900F900F900F9055
:1030E000DF91CF910895CF92DF92EF92FF920F93ED
:1030F0001F93621773078407950784F489019A0167
:103100006B017C01C901B8016C197D098E099F0909
:103110000E944F186C0D7D1D8E1D9F1D1F910F91DC
:10312000FF90EF90DF90CF9008958F929F92AF9293
:10313000BF92CF92DF92EF92FF926B017C010E94CF
:1031400028184B015C01C114D104E104F104F1F031
:103150000E942818DC01CB0188199909AA09BB092A
:10316000883E9340A105B10570F321E0C21AD10851
:10317000E108F10888EE880E83E0981EA11CB11CBE
:10318000C114D104E104F10419F7DDCFFF90EF90F1
:10319000DF90CF90BF90AF909F908F9008951F9237
:1031A0000F920FB60F9211242F933F938F939F93FB
:1031B000AF93BF9380916C0290916D02A0916E02CB
:1031C000B0916F023091390223E0230F2D3720F4A4
:1031D0000196A11DB11D05C026E8230F0296A11D71
:1031E000B11D2093390280936C0290936D02A093DD
:1031F0006E02B0936F0280913A0290913B02A091CF
:103200003C02B0913D020196A11DB11D80933A028E
:1032100090933B02A0933C02B0933D02BF91AF91CB
:103220009F918F913F912F910F900FBE0F901F9004
:103230001895BC0180E090E00C9495188FB12CB1EA
:1032400093B130E02095309520743327A90123E015
:10325000559547952A95E1F7292F30E0209530952F
:10326000207133273595279535952795242B809503
:10327000807F822B08950F93CF93DF9380919201EB
:10328000E0919101F0E0EC56FE4F98E0899FE00D4F
:10329000F11D11248081809367028930F1F46AE086
:1032A00070E080E090E00E944F18DC01CB010396B3
:1032B000A11DB11D893009F484E0809367028091DB
:1032C0006702873019F48CE080936702809167026F
:1032D000883019F484E08093670210928B01E091AA
:1032E00067028E2F90E08031910508F04BC4FC01FD
:1032F000E459FF4F0C94DE3180918F01882309F44B
:1033000071C3815076C31092870610928606109280
:103310008906109288068CE990E10E942023809112
:1033200034028770809343028430C1F178F4813095
:1033300059F1823009F058C08CE790E10E942023B7
:103340008091890190918A01029731C0863009F4F9
:1033500043C090F1873009F047C081E290E10E94BC
:1033600020238091890190918A010A9790938A0184
:103370008093890180916401909165010A969093F0
:1033800065018093640134C08BE890E10E942023A2
:103390008091890190918A01059709C08CE690E19E
:1033A0000E9420238091890190918A010A9790932D
:1033B0008A01809389011CC089E590E10E94202345
:1033C0008091890190918A01059690938A0180935A
:1033D0008901109290010CC08BE490E10E9420239F
:1033E00082E08093900104C084E190E10E94202358
:1033F00080918501909186012091890130918A0107
:103400008217930724F490938A0180938901809115
:10341000890190918A0197FF04C010928A0110924D
:1034200089018FE090E10E94202380918901909191
:103430008A010E94A12334C01092440260C381E03B
:103440005CC310928706109286061092890610922D
:1034500088068BEA90E10E9420236FEA70E080E00A
:1034600090E00E944F18DC01CB01C296A11DB11D56
:103470009093400280933F020E94EA2385EA90E104
:103480000E942023209164013091650180913F02C8
:1034900090914002820F931F909365018093640185
:1034A0000E94D41D6FC31092870610928606109258
:1034B00089061092880687E491E10E94202380917A
:1034C0006401909165010E94EA23E091F806F0E022
:1034D000EE0FFF1FEB5DFE4E859194919093660277
:1034E0008093650280E291E10E9420238091650231
:1034F000909166020E94EA23E091F706F0E0EE0F59
:10350000FF1FE250FF4E8591949190936402809347
:10351000630289EF90E10E942023809163029091E1
:1035200064020E94EA2300E020E140E860E370E0EA
:1035300080E090E00E94782388E090E090938706F6
:103540008093860680E390E09093890680938806B6
:10355000E091F80681E08E0F809362029CE0899FE3
:10356000A001112490E0292F30E0F901E40FF51FAC
:10357000E25AF54EE491D901AA5ABD4FEC939F5FF0
:103580009C3089F7E82FF0E0EE0FFF1FEB5DFE4E59
:103590008591949190935502809354021092380231
:1035A000E0913802EC3071F0F0E0EA5AFD4F6081B2
:1035B00080E796E00E949928809138028F5F80937F
:1035C0003802EECF87EF90E10E94202380915402D1
:1035D000909155020E94EA2384EF90E10E942023FB
:1035E000E091F70681E08E0F809353029CE0899F63
:1035F000A001112490E0292F30E0F901E40FF51F1C
:10360000E059F64EE491D901A95BBD4FEC939F5F61
:103610009C3089F7E82FF0E0EE0FFF1FE250FF4EDD
:1036200085919491909346028093450210923802BE
:10363000E0913802EC3071F0F0E0E95BFD4F608121
:1036400080E796E00E949928809138028F5F8093EE
:103650003802EECF82EF90E10E9420238091450254
:10366000909146020E94EA230E94FA1D00E020E1A8
:1036700040E860E370E080E090E00E9478231092E0
:1036800087061092860680E390E0909389068093E7
:10369000880680914102843009F4A4C180913602E9
:1036A000803309F048C02091540230915502809136
:1036B0006502909166024091640150916501B901E3
:1036C000681B790B4617570790F1840F951F821BD3
:1036D000930B9093650180936401809162028093C3
:1036E000F8069CE0899FA001112490E0292F30E08A
:1036F000F901E40FF51FE25AF54EE491D901AC58F7
:10370000BE4FEC939F5F9C3089F79093380290E016
:10371000FC01E35BF54EE491E0938301FC01E45C82
:10372000F54EE491E093820183EE90E102C082EDD8
:1037300090E10E94202380913602873309F050C126
:10374000209145023091460280916302909164027B
:103750004091640150916501B901681B790B4617CE
:10376000570760F1840F951F821B930B909365019F
:1037700080936401809153028093F7069CE0899FB7
:10378000A001112490E0292F30E0F901E40FF51F8A
:10379000E059F64EE491D901A859BE4FEC939F5FD2
:1037A0009C3089F790933802E82FF0E0E15AF64E0A
:1037B000E491E093800184EC90E110C183EB90E10F
:1037C0000DC181E080938B011092870610928606CE
:1037D000109289061092880683EB91E10E942023C3
:1037E0000E942E2100E020E140E860E370E080E0EC
:1037F00090E00E947823109287061092860680E35C
:1038000090E09093890680938806809136028033F9
:1038100061F48091640190916501C39730F485E96A
:1038200091E10E9420230E94D41D809136028033B2
:1038300009F0A8C18091640190916501C29708F4D4
:10384000A1C18EE891E10E9420230E94D41D8FE740
:1038500091E10E9420231092900180916401909147
:103860006501C29790936501809364018091850101
:103870009091860190938A01809389010E94D41DC2
:1038800010928B017FC110928706109286061092CB
:1038900089061092880687E492E10E9420230E9404
:1038A0002E2100E020E140E860E370E080E090E05D
:1038B0000E9478231092870610928606C0E3D0E01B
:1038C000D0938906C093880680913602803319F020
:1038D0008733E9F0E5CD8BE392E10E9420238091CC
:1038E000890190918A01C29690938A0180938901FF
:1038F0001092900120918501309186012817390797
:103900000CF0CECD30938A0120938901C9CD82E09D
:10391000809343020E94492182E292E10E94202387
:1039200080914202813009F0BBCD83E192E10E9497
:1039300020230E94D41D00E020E140E860E370E015
:1039400080E090E00E94782310928706109286060D
:10395000D0938906C093880681EF91E10E942023CD
:103960009FCD1092870610928606109289061092BB
:1039700088068CE992E10E9420230E942E2100E01B
:1039800020E140E860E370E080E090E00E9478236E
:10399000109287061092860680E390E09093890645
:1039A0008093880680913602803331F0873309F0A6
:1039B000E9C087E892E112C08091340266E00E947B
:1039C000D2319B5F909343020E9449218091420231
:1039D000813009F0D7C08CE592E1C0CF0E9420234E
:1039E0000E94D41D81E080938B01CCC080918F0117
:1039F0008F5F80938F01C6C0109287061092860653
:103A000010928906109288068FE293E10E9420238B
:103A10000E942E2100E020E140E860E370E080E0B9
:103A200090E00E947823109287061092860680E329
:103A300090E09093890680938806809136028033C7
:103A400069F0873309F02CCD8CEC92E10E942023A1
:103A50000E94D41D81E080938B0122CD809134029D
:103A600065E00E94D2319F5F90934302933081F0D2
:103A700018F4923041F004C0943069F0953071F040
:103A800087E293E102C081E293E10E94202313C008
:103A90008AE193E1FACF84E193E1F7CF86E093E105
:103AA0000E94202380916401909165014996909332
:103AB0006501809364010E94492180914202813016
:103AC00009F0EECC00E020E140E860E370E080E047
:103AD00090E00E947823109287061092860680E379
:103AE00090E090938906809388068EED92E10E9483
:103AF00020230E94D41DD4CC82E0809344020E94F3
:103B0000441040C010928F01909187019F5F909365
:103B100087018091F0068F5F8093F0068D3020F052
:103B200084E08093370219C08C3069F4809193014E
:103B3000863498F06BE070E080E090E00E944F18CF
:103B40006093F0060AC09C3020F08BE08093F00672
:103B500004C080913502813069F38091F006282FEE
:103B600030E0F901EE5AF64EE491E0939101F9014B
:103B7000EB5BF64EE491E0939201DF91CF910F91D0
:103B80000C94652180918C01E0918D01F0E0EC5660
:103B9000FE4F98E0899FE00DF11D112482E08083A3
:103BA000DF91CF910F910895CF9384E796E00E9423
:103BB000E4286EEB70E080E090E00E94951810928F
:103BC0004102C1E080914102811112C061E070E0C8
:103BD00080E090E00E949518809134028F5F80937E
:103BE00034020E941E1983FFEDCFC0934102EACF39
:103BF000CF910895CF92EF920F931F93CF93DF93BE
:103C00001092410280E380933602CC24C394E12CCD
:103C100001E02EE340E350E060E070E080E796E0F2
:103C20000E94F72760EC70E080E090E00E94951819
:103C3000C1E0D0E317E380914102811151C061E0FE
:103C400070E080E090E00E9495180E941E1983FDAC
:103C5000C09341020E941E19982F947082FD909388
:103C600041020E941E1987FF19C04091360250E0A0
:103C7000CC24C394E12C01E020E260E070E080E716
:103C800096E00E94F727D09336022EE340E350E0FF
:103C900060E070E080E796E00E94F7270E941E191E
:103CA00084FF19C04091360250E0CC24C394E12C2B
:103CB00001E020E260E070E080E796E00E94F727F4
:103CC000109336022EE347E350E060E070E080E7B7
:103CD00096E00E94F72784E796E00E94E428ABCFA5
:103CE000DF91CF911F910F91EF90CF900895CF92D8
:103CF000DF92EF92FF920F931F93CF93DF9300E039
:103D000020E240E860E370E080E090E00E947823E9
:103D1000109287061092860680E390E090938906C1
:103D2000809388068EEC98E10E9420231092460131
:103D300080914601863099F110923802E091380264
:103D4000E630D9F0A0914601B0E0AF50B94F8C9168
:103D5000F0E096E0899FE00DF11D1124E457F74E45
:103D600064916093430280E796E00E9499288091D5
:103D700038028F5F80933802E1CF8AE898E10E9491
:103D8000202380914601823021F487E898E10E9447
:103D90002023809146018F5F80934601C9CF109206
:103DA000410280E380933602109249018CE38093B4
:103DB0008E01D2E011E030E3F32ECCE347E3D42EC2
:103DC00080914102811178C063E070E080E090E072
:103DD0000E949518809134028F5F80933402809105
:103DE0008E01882319F0815080938E0180918E017D
:103DF0008111E6CF0E941E1983FDD09341020E94DB
:103E00001E1982FD109341020E941E1987FF1DC0DA
:103E10004091360250E06091490170E0CC24C39497
:103E2000E12C01E020E280E796E00E94F727F09283
:103E300036026091490170E02EE340E350E080E7F4
:103E400096E00E94F727C0938E010E941E1985FFFD
:103E500004C0609149016111B8C10E941E1984FF1C
:103E60001DC04091360250E06091490170E0CC24C1
:103E7000C394E12C01E020E280E796E00E94F7275E
:103E8000D09236026091490170E02EE347E350E0A2
:103E900080E796E00E94F727C0938E010E941E19CA
:103EA00086FF05C060914901613508F4ACC184E723
:103EB00096E00E94E42884CF823009F0C6C1809148
:103EC0003602803309F0BDC110924202809149014F
:103ED0006AE20E94D2318093490190914202890F97
:103EE0008093460180915201882329F100E020E26D
:103EF00040E860E370E080E090E00E947823109258
:103F000087061092860680E390E09093890680935E
:103F10008806E0914601F0E0EF50F94FE0818E2FE6
:103F200090E0FC013197EA30F10508F039C1E4581E
:103F3000FF4F0C94DE311092870610928606109285
:103F400089061092880610923802E0913802E63015
:103F5000D9F0A0914601B0E0AF50B94F8C91F0E09C
:103F600096E0899FE00DF11D1124E457F74E64910E
:103F70006093430280E796E00E949928809138027E
:103F80008F5F80933802E1CF00E020E840E260E3F9
:103F900070E080E090E00E94782386E090E09093CB
:103FA00087068093860680E390E09093890680934D
:103FB000880684E797E10E9420230E94FA1D8091E1
:103FC0003602873331F4E0914601F0E0EF50F94FCB
:103FD000108280914102843009F088CF36C181E798
:103FE00098E10E9420231092900180918901909184
:103FF0008A018C599F4F23C08CE598E10E942023B1
:10400000109290018091890190918A01C29617C007
:1040100087E498E10E942023109290018091890109
:1040200090918A014E960BC082E398E10E94202372
:10403000109290018091890190918A010F9690933E
:104040008A0180938901209185013091860128178A
:10405000390724F430938A012093890180918901E2
:1040600090918A010E94A12384E796E00E94E428AF
:104070007BC080915201882309F499C080914B0143
:1040800090914C0197FD01969595879590934801E5
:1040900080934701459734F484E190E09093480180
:1040A0008093470183E0809341028EE198E176C0DE
:1040B00080915201882309F47AC085E090E09093C2
:1040C00048018093470110924A0183E080934102A6
:1040D00084E098E163C080915201882309F467C0AD
:1040E0008AE090E0909348018093470110924A0142
:1040F00083E08093410281E0809351018EEE97E14D
:104100004DC080915201882309F451C080918501EE
:104110009091860190938A018093890182E0809337
:1041200041021092900187ED97E10E9420230E94A6
:10413000D41D36C0809152018823C9F180914F016E
:104140009091500188969093500180934F018091F7
:104150004D0190914E01889690934E0180934D01B0
:1041600080EB97E10E9420230E94D41D82E080937F
:10417000410216C0809152018823C9F08AE090E084
:10418000909348018093470110924A0183E0809305
:10419000410282E08093510187E997E10E94202348
:1041A000E0914601F0E0EF50F94F10824EC08EE7EB
:1041B00097E10E942023DF91CF911F910F91FF90F3
:1041C000EF90DF90CF900C94D41D4091360250E0D8
:1041D00070E0CC24C394E12C01E020E280E796E07B
:1041E0000E94F727609149016A526093490140910A
:1041F000360250E070E02EE380E796E00E94F72759
:10420000C0938E012ACE4091360250E070E0CC245B
:10421000C394E12C01E020E280E796E00E94F727BA
:1042200060914901665D609349014091360250E01A
:1042300070E02EE380E796E00E94F727C0938E019E
:1042400036CE83E08093420241CEDF91CF911F9121
:104250000F91FF90EF90DF90CF9008950F9300E0C3
:1042600020E140E260E370E080E090E00E9478238B
:10427000E0E7F6E086E090E0978B868B81E390E0C4
:10428000918F808F8CE697E10E9420230F910C94F0
:10429000FA1D1092420280E0863089F0E82FF0E0AB
:1042A00091E0980FEF50F94F2081211106C08093C3
:1042B00046018091430280830895892FEDCF80933A
:1042C000460181E080934202089590E5899FA00114
:1042D000112420E090E0FA01E90FF11DE45AFC4EB0
:1042E000E4918E2F8F70E295EF70A22FB0E0AC5664
:1042F000BE4FEC93A1E0A20FB0E0AC56BE4F8C9342
:104300002E5F9F5F903539F780933602E09342022B
:1043100080EA80934901909338020895FC018091CE
:104320006B02811103C08FEF9FEF08959FB7F89440
:1043300082E08093E9002091F20030E0121613062B
:1043400014F421E030E02115310559F0289884E675
:1043500080936A028091F10080838091F20088232B
:1043600019F09FBFC90108958BE68093E800F9CF4B
:104370002FB7F89483E08093E9009091E800892FAB
:10438000807295FF04C09091F20080E4891B2FBFDA
:104390000895CF93DF931F92CDB7DEB76983DC0119
:1043A000ED91FC910280F381E02D41E050E0BE01EF
:1043B0006F5F7F4F09950F90DF91CF91089583E054
:1043C0008093E9008091F200882319F08AE38093BA
:1043D000E80008950E94B82190E00895CF93DF93FC
:1043E0001F92CDB7DEB7FC018485958597FD05C08A
:1043F0002FEF3FEF358724870BC0CE0101960E9437
:104400008E21019719F4898190E002C08FEF9FEF10
:104410000F90DF91CF9108950F931F93CF93DF9368
:104420001F92CDB7DEB78C01FC018485958597FF7F
:104430000EC0CE0101960E948E21019719F42981A8
:1044400030E002C02FEF3FEFF80135872487F801F5
:10445000848595850F90DF91CF911F910F910895DD
:10446000FC018485958597FD0BC09FB7F89482E089
:104470008093E9008091F2009FBF90E0019608953B
:104480009FB7F89482E08093E9008091F2009FBF8B
:1044900090E008958F929F92AF92BF920F931F93D7
:1044A000CF93DF93CDB7DEB7A1970FB6F894DEBFF9
:1044B0000FBECDBF19A2423008F44AE08E010F5D55
:1044C0001F4F842E912CA12CB12CA50194010E9488
:1044D0007030E62FB901CA0101501109EA3014F415
:1044E000E05D01C0E95CD801EC93232B242B252B44
:1044F00061F70115110571F0F80101900020E9F74D
:104500003197AF01401B510BB80180E796E00E9444
:10451000FD1702C080E090E0A1960FB6F894DEBFD0
:104520000FBECDBFDF91CF911F910F91BF90AF9084
:104530009F908F9008958F929F92AF92BF92CF924B
:10454000DF92EF92FF920F931F93CF93DF935C0163
:104550006B017A0180910701882309F45BC0809187
:104560006B02882309F456C08091690280FF05C060
:104570008091E00082608093E000E70110E00AEFA4
:1045800083E0882E9AE3992E2097D9F10E94B821D2
:1045900081110AC0015009F43DC061E070E080E083
:1045A00090E00E949518F0CF282F30E0C217D30773
:1045B0000CF48C2F4FB7F8948092E9009091E800AA
:1045C00095FF1DC0282F30E0C21BD30BF601982F9A
:1045D000915020F081918093F100FACFC20ED31E4A
:1045E000112319F09092E80009C08091E80085FD40
:1045F00006C09092E80011E0209709F010E04FBF4C
:10460000C3CF1111C3CF5D9884E6809368021E1456
:104610001F0444F081E090E0F5019383828380E001
:1046200090E001C0C701DF91CF911F910F91FF90E2
:10463000EF90DF90CF90BF90AF909F908F900895B4
:104640000F931F93CF93DF938C01C0E0D0E0F8016C
:10465000EC0FFD1F6491662371F0E0917006F091FC
:1046600071060190F081E02D80E796E00995892B95
:1046700011F02196ECCFCE01DF91CF911F910F91D8
:104680000895CF92DF92EF92FF920F931F93CF93F3
:10469000DF931F92CDB7DEB77C018B01040F111D94
:1046A0006B0177FF14C0C12CD12C11C0C616D706E0
:1046B000ACF480E8E816F10438F4422FB601C701E3
:1046C00029830E94DF2729818FEFC81AD80AB801F1
:1046D000013411055CF360E470E0E8CF0F90DF91E6
:1046E000CF911F910F91FF90EF90DF90CF900895A1
:1046F000CF92DF92EF92FF920F931F93CF93DF93AE
:104700006B01122FEC017C01E40EF11CCE15DF05CC
:1047100044F4202F412FB601CE010E94412321965F
:10472000F5CFDF91CF911F910F91FF90EF90DF9028
:10473000CF900895682F70E080E090E04AE00C94FC
:104740004A22CF92DF92EF92FF92CF93DF936C01D8
:10475000990FEE08FF08F7FE1FC0E0917006F09178
:1047600071060190F081E02D6DE280E796E00995F9
:10477000EC0166277727CB016C197D098E099F090B
:104780004AE00E944A228C0F9D1FDF91CF91FF903B
:10479000EF90DF90CF9008954AE0C701B601DF9116
:1047A000CF91FF90EF90DF90CF900C944A2280E061
:1047B000E0E7F2E081118FEF0024819381938193F0
:1047C00081930394D1F7E0E7F6E0118E108E178AFB
:1047D000168A0895BC0180E090E04AE00C944A22D9
:1047E0000F931F938FB7F89440916C0250916D0214
:1047F00060916E0270916F028FBF009180061091E0
:104800008106209182063091830680918406882358
:1048100049F080917C06481B4093850610928406DF
:1048200080E036C0401751076207730770F4041B1D
:10483000023070F193B7917F93BF93B7916093BFAC
:10484000889593B79E7F93BF23C081E080938406B1
:1048500040937C0650937D0660937E0670937F069E
:1048600080917B06480F511D611D711D409380068C
:104870005093810660938206709383068091770639
:10488000909178060196909378068093770681E060
:104890001F910F9108958091920681110DC082E0C1
:1048A00080938E0684E080938F061092910610927A
:1048B000900681E0809392068EE896E008954091FC
:1048C000EE065091EF062091EC063091ED0642176E
:1048D0005307B4F49091E8009570E1F39091E800EB
:1048E00092FD19C08093F1008091EE069091EF0641
:1048F00001968F739927892B19F48EEF8093E80026
:104900008091EE069091EF0601969093EF068093CA
:10491000EE0681E0089580E00895CF92DF92EF9255
:10492000FF920F931F93CF93DF931F92CDB7DEB704
:10493000182F062FE42E862F880F8E5F99830E94F2
:104940005F2483E00E945F24F12EC12E9981D92E2D
:104950008C2D8F19801798F4F601E7FE02C0849120
:1049600001C080810E945F24182F80E00E945F2494
:104970008123FFEFCF1ADF0A8111EACF01C081E066
:104980000F90DF91CF911F910F91FF90EF90DF90EB
:10499000CF900895DF92EF92FF920F931F93CF93E2
:1049A000DF93D82E8A017B01E40EF51EEB01CE15B4
:1049B000DF0571F0D7FE03C0FE01849101C088813C
:1049C0000E945F2421968111F2CF8FEF9FEF01C0EB
:1049D000C801DF91CF911F910F91FF90EF90DF9071
:1049E0000895615030F02091F100FC012083019680
:1049F000F8CF289884E680936A0208950F931F9356
:104A0000CF93DF931F92CDB7DEB782E0898342E474
:104A100050E060ED78E180E80E94CA240E944B24B7
:104A2000DC0112960D911C9113970115110569F087
:104A3000D801ED91FC910280F381E02DBE016F5F02
:104A40007F4FC801099597FF07C089810F90DF91BB
:104A5000CF911F910F910895F80100851185E5CF41
:104A60001F920F920FB60F9211248F939F938091F4
:104A7000E1009091E100937F9093E10083FF0FC0EC
:104A80001092E90091E09093EB001092EC0092E319
:104A90009093ED0010926B0298E09093F00082FFEB
:104AA00020C093E09093E9009091F200992319F0CF
:104AB0009AE39093E80090916802992339F09091DD
:104AC0006802915090936802992389F190916A024B
:104AD000992339F090916A02915090936A02992338
:104AE00041F184FF10C08091E2008E7E816080934E
:104AF000E2008091E1008F7E8093E1008091690265
:104B00008E7E806111C080FF16C08091E2008E7E93
:104B100080618093E2008091E1008E7E8093E100CD
:104B2000809169028E7E81608093690204C05D9AE3
:104B3000CDCF289AD6CF9F918F910F900FBE0F9017
:104B40001F9018951F920F920FB60F921124CF92BB
:104B5000DF92EF92FF920F931F932F933F934F9308
:104B60005F936F937F938F939F93AF93BF93EF93D5
:104B7000FF93CF93DF93CDB7DEB76C97DEBFCDBF8A
:104B80001092E9008091E80083FFEDC168E0CE015A
:104B900045960E94F12482EF8093E8008D8987FF7B
:104BA00005C09091E80090FFFCCF03C09EEF90936A
:104BB000E800982F907609F0C6C09E892F89188D3D
:104BC00091110CC0803829F48091EB068093F1009C
:104BD00002C01092F1001092F10048C1422F50E043
:104BE000512B913051F4811141C14130510509F0EF
:104BF0003DC18091EB068D7F0BC0933061F4811134
:104C000035C14130510509F031C18091EB06826018
:104C10008093EB062BC1953041F48091E80080FF32
:104C2000FCCF20682093E30021C1963009F05FC0DB
:104C3000EB8CFC8C1092E9001092EF061092EE06BD
:104C4000123091F51092ED061092EC060E94FE24AF
:104C500099E0BE016F5F7F4FDB01E92F1D92EA955E
:104C6000E9F799831A8391E09E8390EA98879AEFF7
:104C700099872091EE063091EF06275F3F4F3C83E6
:104C80002B838D831092E9001092EF061092EE06AE
:104C9000F092ED06E092EC0649E050E080E00E94E0
:104CA000CA240E94FE24E2C0F092ED06E092EC06D7
:104CB0000E944B24DC011296ED90FC901397E114B6
:104CC000F10409F4C0C0D701ED91FC910480F58195
:104CD000E02DBE016B5E7F4FC7010995009719F06B
:104CE0000CF0C4C0C7C0F701E084F184E8CF97306E
:104CF00009F4C0C0983021F481E08093F100B6C07F
:104D0000993009F0B3C0837009F0B4C0E7E3F1E073
:104D100081E021E036E39081992361F08093E900FE
:104D20002093EB0091919093EC003093ED008F5F16
:104D3000873089F78EE78093EA001092EA008F8926
:104D400080936B0293C08B8D9C8D1092E900109222
:104D5000EF061092EE069093ED068093EC06898D97
:104D6000811156C08E899D89913A59F4813209F09A
:104D700081C047E050E060E071E080E00E94CA241A
:104D800075C0913209F076C0833289F4888D90E045
:104D9000982F88272F89822BA0E0B0E0809308010C
:104DA00090930901A0930A01B0930B015FC0803278
:104DB00069F48091E80082FFFCCF67E080E091E039
:104DC0000E94F1248BEF8093E80006C0823209F044
:104DD0004DC08F89809307018091EA06882319F0DE
:104DE000EEEFFAE002C0E0E0F8E08091000190917F
:104DF0000101A0910201B0910301803B9440A10503
:104E0000B10509F07BC08091070180FF93C076C097
:104E10000E944B24DC0112960D911C9113970115F1
:104E2000110541F1D801ED91FC910190F081E02D47
:104E3000BE016B5E7F4FC8010995811117C0F80153
:104E400000851185ECCF113009F44EC0133091F478
:104E50008F89882309F445C0823081F440E860E1FD
:104E600084E399E10E948D24882321F08EEF8093C2
:104E7000E80079C081E28093EB0075C0813029F4AD
:104E800040E86BE088E299E1EDCF833099F70E942A
:104E90004B24DC011296ED90FC9013978E010F5F6E
:104EA0001F4F6801E114F10479F0D701ED91FC91F5
:104EB0000680F781E02DB801C7010995080F111D83
:104EC000F701E084F184EECFD8011C92F601019045
:104ED0000020E9F73197BF016C197D0940E0C60158
:104EE000C1CF62E179E102C066E179E16115710546
:104EF00009F2FB01449150E080E840CF0FB6F894EE
:104F0000A895809160008861809360001092600095
:104F10000FBEA895EE3F2AE0F20739F08091FE0A15
:104F20009091FF0A91838083A1CF1092FF0A109283
:104F3000FE0A9CCFEE3F8AE0F80731F08081918134
:104F40009093FF0A8093FE0A87E797E79183808317
:104F50009BE088E10FB6F894A895809360000FBE9F
:104F60009093600083CF6C960FB6F894DEBF0FBEAF
:104F7000CDBFDF91CF91FF91EF91BF91AF919F9105
:104F80008F917F916F915F914F913F912F911F91E1
:104F90000F91FF90EF90DF90CF900F900FBE0F908A
:104FA0001F9018950895089580E090E008955C980A
:104FB0008EBD00000DB407FEFDCF5C9A0895EAE2B5
:104FC000F0E290E1969FD001A0781124A80F6770BD
:104FD000E60FF11D9491A059BD4F442319F08C9117
:104FE000982B03C090958C9198239C9308952F92B1
:104FF0003F924F925F926F927F928F929F92AF9269
:10500000BF92CF92DF92EF92FF920F931F93CF93B5
:10501000DF9300D000D01F92CDB7DEB760387105A6
:105020000CF06FC0403451050CF06BC0CB0135E083
:10503000C39E800D911D1124181619060CF061C035
:105040002C2C312CCA01E8E0CE9E800D911D11243C
:10505000181619060CF055C0F02E4A01F5E02F9FE6
:10506000800111247D836C83065D144E20E0F801DD
:10507000D490253009F4D12C240158E0D0FC02C092
:105080003E2D01C03F2D311109C0EF1007C0D6944D
:105090005150420C531C5111F1CF27C0AC80BD8040
:1050A0008A2DFC818F1B8C1590F73201862D841977
:1050B0008C15B8F4F0E8AF16B10478F480E4681603
:1050C000710458F4432FB301C5012A8339835B83EC
:1050D0000E94DF275B8139812A819FEF691A790A53
:1050E000E5CFEFEFAE1ABE0ADBCF2F5F8C819D813B
:1050F000820D931D9D838C830F5F1F4F263009F017
:10510000B6CF0F900F900F900F900F90DF91CF912F
:105110001F910F91FF90EF90DF90CF90BF90AF90D5
:105120009F908F907F906F905F904F903F902F90C7
:105130000895CF92EF920F93CF93DF93EC016A30F3
:1051400069F42C8D888D998D38E0239F800D911DF9
:105150001124998F888F1F8A1E8A2EC06D3061F1AD
:10516000262F488D598D6E897F89CC8CEB8C0A8DCA
:105170000E94F7272C8D422F50E08E899F8936E0C0
:10518000239F800D911D11249F8B8E8B2D8D2223AB
:1051900099F06AEF64039001659F300D1124205847
:1051A0003F4F2817390744F4E881F9810190F081D5
:1051B000E02D6AE0CE01099581E090E0DF91CF918A
:1051C0000F91EF90CF900895809170028EBDE1E72E
:1051D000F2E081910DB407FEFDCF8EBD86E0E03791
:1051E000F807B9F70DB407FEFDCF08952F923F924F
:1051F0004F925F926F927F928F929F92AF92BF92E7
:10520000CF92DF92EF92FF920F931F93CF93DF9392
:10521000CDB7DEB72D970FB6F894DEBF0FBECDBF6A
:10522000ED82E22EF12C9C012E0D3F1D37FD32C187
:10523000803891050CF02EC19B01200F311D37FDE8
:1052400029C1603471050CF025C1DB0177FF04C072
:10525000AA27BB27A61BB70BA770BB279B0177FF0D
:1052600002C0295F3F4F13E0359527951A95E1F766
:1052700077FF08C02150310968E070E0FB01EA1BAC
:10528000FB0BDF01E02FE695E695E695CE2ED12CBF
:10529000077019F0FFEFCF1ADF0AB9017695762F64
:1052A000662777956795680F791F60597D4F86014E
:1052B000020F131F19870887C12CD12CF8E0AF2EDD
:1052C000B12C85010A1B1B0B1F830E8308851985D2
:1052D0002017310709F4DEC02830310509F4DAC09F
:1052E0002F3F1FEF31070CF4CAC08B0100581F4F2E
:1052F0001D870C874B013B012B011C011C830B8379
:105300001A8309831B861A860A851B850E151F05BD
:105310000CF0B5C010E82116310409F4B0C037FC18
:1053200089C02F3FEFEF3E0709F4B0C00A851B8507
:105330000C0D1D1DFD81F13079F4F801E40FF51F0E
:10534000E491F0E08F010A2E01C0000F0A94EAF701
:10535000F301B0800B2925C0FD81F11114C0F801C3
:10536000E40FF51FE491F0E00A2E02C0EE0FFF1FDC
:105370000A94E2F78F0100951095F401A080B12CFA
:105380000A211B210EC0F801E40FF51FE491F0E0A3
:105390008F010A2E01C0000F0A94EAF7F201B080D3
:1053A0000B250083109709F445C02730310509F417
:1053B00041C00A851B850C0D1D1DFD81F13089F44E
:1053C000F801E40FF51FE4910E2F10E00E8002C0EB
:1053D000159507950A94E2F7EC85FD85B0800B29B9
:1053E00028C0FD81F11115C0F801E40FF51FE4910B
:1053F0000E2F10E00E8002C0159507950A94E2F773
:1054000000951095E981FA81A080B12C0A211B2119
:1054100010C0F801E40FF51FE4910E2F10E00E808C
:1054200002C0159507950A94E2F7EB81FC81B080E4
:105430000B2500830A851B850F5F1F4F1B870A877B
:105440000C851D850F5F1F4F1D870C8709811A81F1
:105450000F5F1F4F1A8309830B811C810F5F1F4F42
:105460001C830B831FEF211A310AEFEF4E1A5E0ADD
:10547000FFEF6F1A7F0A0FEF801A900A45CF2F5F58
:105480003F4F60587F4FCE0CDF1C20CF109709F0A4
:1054900090CFD0CF2D960FB6F894DEBF0FBECDBF04
:1054A000DF91CF911F910F91FF90EF90DF90CF9000
:1054B000BF90AF909F908F907F906F905F904F9034
:1054C0003F902F90089521E0209388011092900141
:1054D000109287018EE190E0909386018093850180
:1054E00090938A018093890184E0809384011092D3
:1054F000810180913502281B2093F8068CE0289FBB
:10550000B001112480E0482F50E0FA01E60FF71FA8
:10551000E25AF54EE491DA01AC58BE4FEC938F5F3E
:105520008C3089F7822F90E0FC01E35BF54EE4912B
:10553000E0938301FC01E45CF54EE491E093820189
:105540002093F70620E0422F50E0FA01E60FF71F04
:10555000E059F64EE491DA01A859BE4FEC932F5F63
:105560002C3089F720933802FC01E15AF64EE49181
:10557000E09380011092650110926401109267011E
:10558000109266011092370282E08093F106109229
:10559000F2061092F3061092F4061092F50610929D
:1055A000F60680EC8093930180E00E9465211092C2
:1055B000F006E2E5F9E1E491E0939101E5E4F9E137
:1055C000E491E09392010895789484B5826084BD5B
:1055D00084B5816084BD85B5826085BD85B58160F7
:1055E00085BD80916E00816080936E001092810075
:1055F0008091810082608093810080918100816030
:1056000080938100809180008160809380008091F0
:1056100091008260809391008091910081608093DD
:105620009100809190008160809390008091C100F2
:1056300084608093C1008091C10082608093C1002A
:105640008091C10081608093C1008091C30081601E
:105650008093C3008091C00082608093C0008091DD
:10566000C20081608093C20080917A008460809340
:105670007A0080917A00826080937A0080917A002B
:10568000816080937A0080917A00806880937A00AC
:1056900010926B021092EB06109269028091D70073
:1056A00081608093D70080EA8093D80089B58061BB
:1056B00089BD89B5826089BD09B400FEFDCF61E076
:1056C00070E080E090E00E9495188091D8008F7C77
:1056D00080618093D8008091E000807F8093E0001B
:1056E0008091E1008E7E8093E1008DE08093E20066
:1056F000559A209AEEEFFFE7859194918B3F9C4D50
:1057000019F481E08093EA0681EC80937C0085B1F6
:10571000806F85B9249884B1866E84B95E9A5F984B
:105720008AB1806D8AB9769A6E9881B3806F81BB99
:10573000899880B38D7080BB80E58CBD81E08DBD84
:1057400085E090E00E9419195F9A85E090E00E9440
:1057500019195E985C98E5E7F9E08DE08E0F949159
:105760009EBD00000DB407FEFDCF31968E13F7CF1E
:105770005C9A81E88093640081E0809365000E94D8
:10578000D72382E380937B06809164008E7F809391
:10579000640080917A00806480937A0080917A001E
:1057A00086FDFCCFC0917800D09179000E94281826
:1057B0004E01A12CB12C540199248824680D791D27
:1057C0008A1D9B1D611571058105910511F00E94CF
:1057D0002D308091640081608093640010923802C3
:1057E000F6E02F2E312CA8E24A2E512CB8E36B2E76
:1057F000712CE0E38E2E912CC1E080913702811153
:105800002FC00E94F023811107C080E090E0892B17
:1058100099F30E940000EDCF0E94D72387EA0E94EF
:10582000D72772E0E72E00E220E24FE85FE060E178
:1058300070E080E390E00E94F62884E796E00E9402
:10584000E428809138028F5F809338028837A9F668
:10585000C093370286EA0E94D7270E94D723CDCF74
:1058600010E3D2E067E3F62EC0913702C13009F0B1
:10587000E5C00E94F023882341F2EE24E39400E285
:1058800020E44FE85EE060E070E080E290E00E949B
:10589000F6281092870610928606909289068092CA
:1058A000880683E89EE00E9420230E94FA1D109340
:1058B0003602109235020E94632AD0933702F0928A
:1058C0003602C09335020E94632AD0933702CCCFB0
:1058D0000E94F023882309F498CF0E94D723809157
:1058E00034028F5F809334021092870610928606EE
:1058F000109289061092880610923E0250E4A52E5E
:10590000BB24BA94C12CD12CF0903E02EF2DF0E0D4
:10591000EC56FE4F408110919301C12FD0E080E200
:10592000489FA00111244D57534FB5016C0F7D1FA7
:10593000EE24E39400E120E1C6010E94F628F394EE
:10594000F0923E0290E1C90ED11C20E8C216D104AB
:10595000D9F68CE0A80EB11C90E3A916B10491F61B
:10596000809192012CE0829FC0011124805C9109FA
:10597000C80FD91FAA971CF01450109393012091BF
:105980009301AC01420F511D4B3051051CF42C5FAB
:105990002093930120919301EC01C20FD11DC0907F
:1059A000910180E1C89E60011124EE24E39400E19E
:1059B00020E143E45CE0BE01C6010E94F628E12C30
:1059C00020E143E65CE0BE01C6010E94F62880911A
:1059D00090018230B1F4EE24E39408E020E143E248
:1059E0005CE060E070E080E090E00E94F628E12C4E
:1059F00020E143E35CE060E070E080E090E00E9442
:105A0000F628F0908F01F1101FC080918E0188233D
:105A100019F0815080938E0180918E018823B1F11D
:105A20008091890190918A01181619061CF083E073
:105A30008093370284E796E00E94E4288091370241
:105A4000823009F445CFA7C1109238021091380274
:105A50001F15D9F2C12FD0E0CC0FDD1FEE24E39447
:105A600008E020E143E05CE0BE0180E790E00E94B6
:105A7000F628E12C20E143E15CE0BE0180E790E004
:105A80000E94F6281F5F10933802E0CF0E941E1973
:105A900082FF1AC13092870620928606909289066C
:105AA0008092880681E59AE00E9420230E94FA1DD8
:105AB00080913602803309F496C0873309F001C122
:105AC0000E94D723109287061092860610928906AC
:105AD000109288068AE49AE00E942023109287069A
